:020000040000FA
:10000000FFFFFFFFFFFFFFFFFFFFFFFFFFFFFFFF00
:10001000FFFFFFFFFFFFFFFFFFFFFFFFFFFFFFFFF0
:10002000000000BB11220044FFFFFFFFFFFFFFFFA6
:10003000AA995566200000003003E0010000000B83
:10004000300080010000001220000000300220017A
:1000500000000000300200010000000030008001BC
:1000600000000000200000003000800100000007B8
:1000700020000000200000003002600100000000AD
:100080003001200102423FE53001C00100000000C4
:1000900030018001037C40933000800100000009A2
:1000A000200000003000C001000004013000A00169
:1000B000000005013000C001000010003003000105
:1000C00000001000200000002000000020000000C0
:1000D00020000000200000002000000020000000A0
:1000E00020000000300020010000000030008001EE
:1000F000000000012000000030004065000000000A
:1001000000000000000000000000000000000000EF
:1001100000000000000000000000000000000000DF
:1001200000000000000000000000000000000000CF
:1001300000000000000000000000000000000000BF
:1001400000000000000000000000000000000000AF
:10015000000000000000000000000000000000009F
:10016000000000000000000000000000000000008F
:10017000000000000000000000000000000000007F
:10018000000000000000000000000000000000006F
:10019000000000000000000000000000000000005F
:1001A000000000000000000000000000000000004F
:1001B000000000000000000000000000000000003F
:1001C000000000000000000000000000000000002F
:1001D000000000000000000000000000000000001F
:1001E000000000000000000000000000000000000F
:1001F00000000000000000000000000000000000FF
:1002000000000000000000000000000000000000EE
:1002100000000000000000000000000000000000DE
:1002200000000000000000000000000000000000CE
:1002300000000000000000000000000000000000BE
:1002400000000000000000000000000000000000AE
:10025000000000000000000000000000000000009E
:10026000000000000000000000000000000000008E
:10027000000000000000000000000000000000007E
:10028000000000000000000000000000000000006E
:10029000300080010000000220000000200000006B
:1002A00020000000200000002000000020000000CE
:1002B00020000000200000002000000020000000BE
:1002C0002000000020000000300140080000000075
:1002D000000000000000000000000000000000001E
:1002E00000000000000000000000000030002001BD
:1002F0000000000130014004000000000000000088
:10030000000000000000000030002001000000029A
:100310003001400400000000000000000000000068
:100320000000000030002001000000033001400404
:1003300000000000000000000000000000000000BD
:1003400030002001000000043001400400000000E3
:10035000000000000000000000000000300020014C
:100360000000000530014004000000000000000013
:100370000000000000000000300020010000000626
:1003800030014004000000000000000000000000F8
:100390000000000030002001000000073001400490
:1003A000000000000000000000000000000000004D
:1003B000300020010000000830014004000000006F
:1003C00000000000000000000000000030002001DC
:1003D000000000093001400400000000000000009F
:1003E0000000000000000000300020010000000AB2
:1003F0003001400400000000000000000000000088
:1004000000000000300020010000000B300140041B
:1004100000000000000000000000000000000000DC
:10042000300020010000000C3001400400000000FA
:10043000000000000000000000000000300020016B
:100440000000000D3001400400000000000000002A
:100450000000000000000000300020010000000E3D
:100460003001400400000000000000000000000017
:1004700000000000300020010000000F30014004A7
:10048000000000000000000000000000000000006C
:100490003000200100000010300140040000000086
:1004A00000000000000000000000000030002001FB
:1004B00000000011300140040000000000000000B6
:1004C00000000000000000003000200100000012C9
:1004D00030014004000000000000000000000000A7
:1004E0000000000030002001000000133001400433
:1004F00000000000000000000000000000000000FC
:100500003000200100000014300140040000000011
:10051000000000000000000000000000300020018A
:100520000000001530014004000000000000000041
:100530000000000000000000300020010000001654
:100540003001400400000000000000000000000036
:1005500000000000300020010000001730014004BE
:10056000000000000000000000000000000000008B
:10057000300020010000001830014004000000009D
:10058000000000000000000000000000300020011A
:1005900000000019300140040000000000000000CD
:1005A0000000000000000000300020010000001AE0
:1005B00030014004000000000000000000000000C6
:1005C00000000000300020010000001B300140044A
:1005D000000000000000000000000000000000001B
:1005E000300020010000001C300140040000000029
:1005F00000000000000000000000000030002001AA
:100600000000001D30014004000000000000000058
:100610000000000000000000300020010000001E6B
:100620003001400400000000000000000000000055
:1006300000000000300020010000001F30014004D5
:1006400000000000000000000000000000000000AA
:1006500030002001000000203001400400000000B4
:100660000000000000000000000000003000200139
:1006700000000021300140040000000000000000E4
:1006800000000000000000003000200100000022F7
:1006900030014004000000000000000000000000E5
:1006A0000000000030002001000000233001400461
:1006B000000000000000000000000000000000003A
:1006C0003000200100000024300140040000000040
:1006D00000000000000000000000000030002001C9
:1006E0000000002530014004000000000000000070
:1006F0000000000000000000300020010000002683
:100700003001400400000000000000000000000074
:1007100000000000300020010000002730014004EC
:1007200000000000000000000000000000000000C9
:1007300030002001000000283001400400000000CB
:100740000000000000000000000000003000200158
:1007500000000029300140040000000000000000FB
:1007600000000000000000003000200100000080B8
:100770003001400400000000000000000000000004
:100780000000000030002001000000813001400422
:100790000000000000000000000000000000000059
:1007A0003000200100000082300140040000000001
:1007B00000000000000000000000000030002001E8
:1007C0000000008330014004000000000000000031
:1007D0000000000000000000300020010000008444
:1007E0003001400400000000000000000000000094
:1007F00000000000300020010000008530014004AE
:1008000000000000000000000000000000000000E8
:10081000300020010000008630014004000000008C
:100820000000000000000000000000003000200177
:1008300000000087300140040000000000000000BC
:1008400000000000000000003000200100000088CF
:100850003001400400000000000000000000000023
:100860000000000030002001000000893001400439
:100870000000000000000000000000000000000078
:10088000300020010000008A300140040000000018
:100890000000000000000000000000003000200107
:1008A0000000008B30014004000000000000000048
:1008B0000000000000000000300020010000008C5B
:1008C00030014004000000000000000000000000B3
:1008D00000000000300020010000008D30014004C5
:1008E0000000000000000000000000000000000008
:1008F000300020010000008E3001400400000000A4
:100900000000000000000000000000003000200196
:100910000000008F300140040000000000000000D3
:1009200000000000000000003000200100000090E6
:100930003001400400000000000000000000000042
:100940000000000030002001000000913001400450
:100950000000000000000000000000000000000097
:10096000300020010000009230014004000000002F
:100970000000000000000000000000003000200126
:10098000000000933001400400000000000000005F
:100990000000000000000000300020010000009472
:1009A00030014004000000000000000000000000D2
:1009B00000000000300020010000009530014004DC
:1009C0000000000000000000000000000000000027
:1009D00030002001000000963001400400000000BB
:1009E00000000000000000000000000030002001B6
:1009F00000000097300140040000000000000000EB
:100A000000000000000000003000200100000098FD
:100A10003001400400000000000000000000000061
:100A20000000000030002001000000993001400467
:100A300000000000000000000000000000000000B6
:100A4000300020010000009A300140040000000046
:100A50000000000000000000000000003000200145
:100A60000000009B30014004000000000000000076
:100A70000000000000000000300020010000009C89
:100A800030014004000000000000000000000000F1
:100A900000000000300020010000009D30014004F3
:100AA0000000000000000000000000000000000046
:100AB000300020010000010030014004000000006F
:100AC00000000000000000000000000030002001D5
:100AD000000001013001400400000000000000009F
:100AE00000000000000000003000200100000102B2
:100AF0003001400400000000000000000000000081
:100B0000000000003000200100000103300140041B
:100B100000000000000000000000000000000000D5
:100B200030002001000001043001400400000000FA
:100B30000000000000000000000000003000200164
:100B4000000001053001400400000000000000002A
:100B5000000000000000000030002001000001063D
:100B60003001400400000000000000000000000010
:100B700000000000300020010000010730014004A7
:100B80000000000000000000000000000000000065
:100B90003000200100000108300140040000000086
:100BA00000000000000000000000000030002001F4
:100BB00000000109300140040000000000000000B6
:100BC0000000000000000000300020010000010AC9
:100BD00030014004000000000000000000000000A0
:100BE00000000000300020010000010B3001400433
:100BF00000000000000000000000000000000000F5
:100C0000300020010000010C300140040000000011
:100C10000000000000000000000000003000200183
:100C20000000010D30014004000000000000000041
:100C30000000000000000000300020010000010E54
:100C4000300140040000000000000000000000002F
:100C500000000000300020010000010F30014004BE
:100C60000000000000000000000000000000000084
:100C7000300020010000011030014004000000009D
:100C80000000000000000000000000003000200113
:100C900000000111300140040000000000000000CD
:100CA00000000000000000003000200100000112E0
:100CB00030014004000000000000000000000000BF
:100CC000000000003000200100000113300140044A
:100CD0000000000000000000000000000000000014
:100CE0003000200100000114300140040000000029
:100CF00000000000000000000000000030002001A3
:100D00000000011530014004000000000000000058
:100D1000000000000000000030002001000001166B
:100D2000300140040000000000000000000000004E
:100D300000000000300020010000011730014004D5
:100D400000000000000000000000000000000000A3
:100D500030002001000001183001400400000000B4
:100D60000000000000000000000000003000200132
:100D700000000119300140040000000000000000E4
:100D80000000000000000000300020010000011AF7
:100D900030014004000000000000000000000000DE
:100DA00000000000300020010000011B3001400461
:100DB0000000000000000000000000000000000033
:100DC000300020010000011C300140040000000040
:100DD00000000000000000000000000030002001C2
:100DE0000000011D30014004000000000000000070
:100DF0000000000000000000300020010000011E83
:100E0000300140040000000000000000000000006D
:100E100000000000300020010000011F30014004EC
:100E200000000000000000000000000000000000C2
:100E300030002001000001203001400400000000CB
:100E40000000000000000000000000003000200151
:100E500000000121300140040000000000000000FB
:100E6000000000000000000030002001000001220E
:100E700030014004000000000000000000000000FD
:100E80000000000030002001000001233001400478
:100E90000000000000000000000000000000000052
:100EA00030002001000001803001400400000000FB
:100EB00000000000000000000000000030002001E1
:100EC000000001813001400400000000000000002B
:100ED000000000000000000030002001000001823E
:100EE000300140040000000000000000000000008D
:100EF00000000000300020010000018330014004A8
:100F000000000000000000000000000000000000E1
:100F10003000200100000184300140040000000086
:100F20000000000000000000000000003000200170
:100F300000000185300140040000000000000000B6
:100F400000000000000000003000200100000186C9
:100F5000300140040000000000000000000000001C
:100F60000000000030002001000001873001400433
:100F70000000000000000000000000000000000071
:100F80003000200100000188300140040000000012
:100F90000000000000000000000000003000200100
:100FA0000000018930014004000000000000000042
:100FB0000000000000000000300020010000018A55
:100FC00030014004000000000000000000000000AC
:100FD00000000000300020010000018B30014004BF
:100FE0000000000000000000000000000000000001
:100FF000300020010000018C30014004000000009E
:10100000000000000000000000000000300020018F
:101010000000018D300140040000000000000000CD
:101020000000000000000000300020010000018EE0
:10103000300140040000000000000000000000003B
:1010400000000000300020010000018F300140044A
:101050000000000000000000000000000000000090
:101060003000200100000190300140040000000029
:10107000000000000000000000000000300020011F
:101080000000019130014004000000000000000059
:10109000000000000000000030002001000001926C
:1010A00030014004000000000000000000000000CB
:1010B00000000000300020010000019330014004D6
:1010C0000000000000000000000000000000000020
:1010D00030002001000001943001400400000000B5
:1010E00000000000000000000000000030002001AF
:1010F00000000195300140040000000000000000E5
:1011000000000000000000003000200100000196F7
:10111000300140040000000000000000000000005A
:101120000000000030002001000001973001400461
:1011300000000000000000000000000000000000AF
:101140003000200100000198300140040000000040
:10115000000000000000000000000000300020013E
:101160000000019930014004000000000000000070
:101170000000000000000000300020010000019A83
:1011800030014004000000000000000000000000EA
:1011900000000000300020010000019B30014004ED
:1011A000000000000000000000000000000000003F
:1011B000300020010000019C3001400400000000CC
:1011C00000000000000000000000000030002001CE
:1011D0000000019D300140040000000000000000FC
:1011E0000000000000000000300020010000019E0F
:1011F000300140040000000000000000000000007A
:1012000000000000300020010000019F3001400478
:1012100000000000000000000000000000000000CE
:1012200030002001000001A0300140040000000057
:10123000000000000000000000000000300020015D
:10124000000001A130014004000000000000000087
:10125000000000000000000030002001000001A29A
:101260003001400400000000000000000000000009
:101270000000000030002001000001A33001400404
:10128000000000000000000000000000000000005E
:101290003000200100000200300140040000000086
:1012A00000000000000000000000000030002001ED
:1012B00000000201300140040000000000000000B6
:1012C00000000000000000003000200100000202C9
:1012D0003001400400000000000000000000000099
:1012E0000000000030002001000002033001400433
:1012F00000000000000000000000000000000000EE
:101300003000200100000204300140040000000011
:10131000000000000000000000000000300020017C
:101320000000020530014004000000000000000041
:101330000000000000000000300020010000020654
:101340003001400400000000000000000000000028
:1013500000000000300020010000020730014004BE
:10136000000000000000000000000000000000007D
:10137000300020010000020830014004000000009D
:10138000000000000000000000000000300020010C
:1013900000000209300140040000000000000000CD
:1013A0000000000000000000300020010000020AE0
:1013B00030014004000000000000000000000000B8
:1013C00000000000300020010000020B300140044A
:1013D000000000000000000000000000000000000D
:1013E000300020010000020C300140040000000029
:1013F000000000000000000000000000300020019C
:101400000000020D30014004000000000000000058
:101410000000000000000000300020010000020E6B
:101420003001400400000000000000000000000047
:1014300000000000300020010000020F30014004D5
:10144000000000000000000000000000000000009C
:1014500030002001000002103001400400000000B4
:10146000000000000000000000000000300020012B
:1014700000000211300140040000000000000000E4
:1014800000000000000000003000200100000212F7
:1014900030014004000000000000000000000000D7
:1014A0000000000030002001000002133001400461
:1014B000000000000000000000000000000000002C
:1014C0003000200100000214300140040000000040
:1014D00000000000000000000000000030002001BB
:1014E0000000021530014004000000000000000070
:1014F0000000000000000000300020010000021683
:101500003001400400000000000000000000000066
:1015100000000000300020010000021730014004EC
:1015200000000000000000000000000000000000BB
:1015300030002001000002183001400400000000CB
:10154000000000000000000000000000300020014A
:1015500000000219300140040000000000000000FB
:101560000000000000000000300020010000021A0E
:1015700030014004000000000000000000000000F6
:1015800000000000300020010000021B3001400478
:10159000000000000000000000000000000000004B
:1015A000300020010000021C300140040000000057
:1015B00000000000000000000000000030002001DA
:1015C0000000021D30014004000000000000000087
:1015D0000000000000000000300020010000021E9A
:1015E0003001400400000000000000000000000086
:1015F00000000000300020010000021F3001400404
:1016000000000000000000000000000000000000DA
:1016100030002001000002203001400400000000E2
:101620000000000000000000000000003000200169
:101630000000022130014004000000000000000012
:101640000000000000000000300020010000022225
:101650003001400400000000000000000000000015
:10166000000000003000200100000223300140048F
:10167000000000000000000000000000000000006A
:101680003000200100000280300140040000000012
:1016900000000000000000000000000030002001F9
:1016A0000000028130014004000000000000000042
:1016B0000000000000000000300020010000028255
:1016C00030014004000000000000000000000000A5
:1016D00000000000300020010000028330014004BF
:1016E00000000000000000000000000000000000FA
:1016F000300020010000028430014004000000009E
:101700000000000000000000000000003000200188
:1017100000000285300140040000000000000000CD
:1017200000000000000000003000200100000286E0
:101730003001400400000000000000000000000034
:10174000000000003000200100000287300140044A
:101750000000000000000000000000000000000089
:101760003000200100000288300140040000000029
:101770000000000000000000000000003000200118
:101780000000028930014004000000000000000059
:101790000000000000000000300020010000028A6C
:1017A00030014004000000000000000000000000C4
:1017B00000000000300020010000028B30014004D6
:1017C0000000000000000000000000000000000019
:1017D000300020010000028C3001400400000000B5
:1017E00000000000000000000000000030002001A8
:1017F0000000028D300140040000000000000000E5
:101800000000000000000000300020010000028EF7
:101810003001400400000000000000000000000053
:1018200000000000300020010000028F3001400461
:1018300000000000000000000000000000000000A8
:101840003000200100000290300140040000000040
:101850000000000000000000000000003000200137
:101860000000029130014004000000000000000070
:101870000000000000000000300020010000029283
:1018800030014004000000000000000000000000E3
:1018900000000000300020010000029330014004ED
:1018A0000000000000000000000000000000000038
:1018B00030002001000002943001400400000000CC
:1018C00000000000000000000000000030002001C7
:1018D00000000295300140040000000000000000FC
:1018E000000000000000000030002001000002960F
:1018F0003001400400000000000000000000000073
:101900000000000030002001000002973001400478
:1019100000000000000000000000000000000000C7
:101920003000200100000298300140040000000057
:101930000000000000000000000000003000200156
:101940000000029930014004000000000000000087
:101950000000000000000000300020010000029A9A
:101960003001400400000000000000000000000002
:1019700000000000300020010000029B3001400404
:101980000000000000000000000000000000000057
:10199000300020010000029C3001400400000000E3
:1019A00000000000000000000000000030002001E6
:1019B0000000029D30014004000000000000000013
:1019C0000000000000000000300020010000029E26
:1019D0003001400400000000000000000000000092
:1019E00000000000300020010000029F3001400490
:1019F00000000000000000000000000000000000E7
:101A000030002001000002A030014004000000006E
:101A10000000000000000000000000003000200175
:101A2000000002A13001400400000000000000009E
:101A3000000000000000000030002001000002A2B1
:101A40003001400400000000000000000000000021
:101A50000000000030002001000002A3300140041B
:101A60000000000000000000000000000000000076
:101A7000300020010000030030014004000000009D
:101A80000000000000000000000000003000200105
:101A900000000301300140040000000000000000CD
:101AA00000000000000000003000200100000302E0
:101AB00030014004000000000000000000000000B1
:101AC000000000003000200100000303300140044A
:101AD0000000000000000000000000000000000006
:101AE0003000200100000304300140040000000029
:101AF0000000000000000000000000003000200195
:101B00000000030530014004000000000000000058
:101B1000000000000000000030002001000003066B
:101B20003001400400000000000000000000000040
:101B300000000000300020010000030730014004D5
:101B40000000000000000000000000000000000095
:101B500030002001000003083001400400000000B4
:101B60000000000000000000000000003000200124
:101B700000000309300140040000000000000000E4
:101B80000000000000000000300020010000030AF7
:101B900030014004000000000000000000000000D0
:101BA00000000000300020010000030B3001400461
:101BB0000000000000000000000000000000000025
:101BC000300020010000030C300140040000000040
:101BD00000000000000000000000000030002001B4
:101BE0000000030D30014004000000000000000070
:101BF0000000000000000000300020010000030E83
:101C0000300140040000000000000000000000005F
:101C100000000000300020010000030F30014004EC
:101C200000000000000000000000000000000000B4
:101C300030002001000003103001400400000000CB
:101C40000000000000000000000000003000200143
:101C500000000311300140040000000000000000FB
:101C6000000000000000000030002001000003120E
:101C700030014004000000000000000000000000EF
:101C80000000000030002001000003133001400478
:101C90000000000000000000000000000000000044
:101CA0003000200100000314300140040000000057
:101CB00000000000000000000000000030002001D3
:101CC0000000031530014004000000000000000087
:101CD000000000000000000030002001000003169A
:101CE000300140040000000000000000000000007F
:101CF0000000000030002001000003173001400404
:101D000000000000000000000000000000000000D3
:101D100030002001000003183001400400000000E2
:101D20000000000000000000000000003000200162
:101D30000000031930014004000000000000000012
:101D40000000000000000000300020010000031A25
:101D5000300140040000000000000000000000000E
:101D600000000000300020010000031B300140048F
:101D70000000000000000000000000000000000063
:101D8000300020010000038030014004000000000A
:101D900000000000000000000000000030002001F2
:101DA000000003813001400400000000000000003A
:101DB000000000000000000030002001000003824D
:101DC000300140040000000000000000000000009E
:101DD00000000000300020010000038330014004B7
:101DE00000000000000000000000000000000000F3
:101DF0003000200100000384300140040000000096
:101E00000000000000000000000000003000200181
:101E100000000385300140040000000000000000C5
:101E200000000000000000003000200100000386D8
:101E3000300140040000000000000000000000002D
:101E40000000000030002001000003873001400442
:101E50000000000000000000000000000000000082
:101E60003000200100000388300140040000000021
:101E70000000000000000000000000003000200111
:101E80000000038930014004000000000000000051
:101E90000000000000000000300020010000038A64
:101EA00030014004000000000000000000000000BD
:101EB00000000000300020010000038B30014004CE
:101EC0000000000000000000000000000000000012
:101ED000300020010000038C3001400400000000AD
:101EE00000000000000000000000000030002001A1
:101EF0000000038D300140040000000000000000DD
:101F00000000000000000000300020010000038EEF
:101F1000300140040000000000000000000000004C
:101F200000000000300020010000038F3001400459
:101F300000000000000000000000000000000000A1
:101F40003000200100000390300140040000000038
:101F50000000000000000000000000003000200130
:101F60000000039130014004000000000000000068
:101F7000000000000000000030002001000003927B
:101F800030014004000000000000000000000000DC
:101F900000000000300020010000039330014004E5
:101FA0000000000000000000000000000000000031
:101FB00030002001000003943001400400000000C4
:101FC00000000000000000000000000030002001C0
:101FD00000000395300140040000000000000000F4
:101FE0000000000000000000300020010000039607
:101FF000300140040000000000000000000000006C
:102000000000000030002001000003973001400470
:1020100000000000000000000000000000000000C0
:10202000300020010000039830014004000000004F
:10203000000000000000000000000000300020014F
:10204000000003993001400400000000000000007F
:102050000000000000000000300020010000039A92
:1020600030014004000000000000000000000000FB
:1020700000000000300020010000039B30014004FC
:102080000000000000000000000000000000000050
:10209000300020010000039C3001400400000000DB
:1020A00000000000000000000000000030002001DF
:1020B0000000039D3001400400000000000000000B
:1020C0000000000000000000300020010000039E1E
:1020D000300140040000000000000000000000008B
:1020E00000000000300020010000039F3001400488
:1020F00000000000000000000000000000000000E0
:1021000030002001000003A0300140040000000066
:10211000000000000000000000000000300020016E
:10212000000003A130014004000000000000000096
:10213000000000000000000030002001000003A2A9
:10214000300140040000000000000000000000001A
:102150000000000030002001000003A33001400413
:10216000000000000000000000000000000000006F
:102170003000200100000400300140040000000095
:1021800000000000000000000000000030002001FE
:1021900000000401300140040000000000000000C5
:1021A00000000000000000003000200100000402D8
:1021B00030014004000000000000000000000000AA
:1021C0000000000030002001000004033001400442
:1021D00000000000000000000000000000000000FF
:1021E0003000200100000404300140040000000021
:1021F000000000000000000000000000300020018E
:102200000000040530014004000000000000000050
:102210000000000000000000300020010000040663
:102220003001400400000000000000000000000039
:1022300000000000300020010000040730014004CD
:10224000000000000000000000000000000000008E
:1022500030002001000004083001400400000000AC
:10226000000000000000000000000000300020011D
:1022700000000409300140040000000000000000DC
:102280000000000000000000300020010000040AEF
:1022900030014004000000000000000000000000C9
:1022A00000000000300020010000040B3001400459
:1022B000000000000000000000000000000000001E
:1022C000300020010000040C300140040000000038
:1022D00000000000000000000000000030002001AD
:1022E0000000040D30014004000000000000000068
:1022F0000000000000000000300020010000040E7B
:102300003001400400000000000000000000000058
:1023100000000000300020010000040F30014004E4
:1023200000000000000000000000000000000000AD
:1023300030002001000004103001400400000000C3
:10234000000000000000000000000000300020013C
:1023500000000411300140040000000000000000F3
:102360000000000000000000300020010000041206
:1023700030014004000000000000000000000000E8
:102380000000000030002001000004133001400470
:10239000000000000000000000000000000000003D
:1023A000300020010000041430014004000000004F
:1023B00000000000000000000000000030002001CC
:1023C000000004153001400400000000000000007F
:1023D0000000000000000000300020010000041692
:1023E0003001400400000000000000000000000078
:1023F00000000000300020010000041730014004FC
:1024000000000000000000000000000000000000CC
:1024100030002001000004183001400400000000DA
:10242000000000000000000000000000300020015B
:10243000000004193001400400000000000000000A
:102440000000000000000000300020010000041A1D
:102450003001400400000000000000000000000007
:1024600000000000300020010000041B3001400487
:10247000000000000000000000000000000000005C
:10248000300020010000041C300140040000000066
:1024900000000000000000000000000030002001EB
:1024A0000000041D30014004000000000000000096
:1024B0000000000000000000300020010000041EA9
:1024C0003001400400000000000000000000000097
:1024D00000000000300020010000041F3001400413
:1024E00000000000000000000000000000000000EC
:1024F00030002001000004203001400400000000F2
:10250000000000000000000000000000300020017A
:102510000000042130014004000000000000000021
:102520000000000000000000300020010000042234
:102530003001400400000000000000000000000026
:10254000000000003000200100000423300140049E
:10255000000000000000000000000000000000007B
:102560003000200100000480300140040000000021
:10257000000000000000000000000000300020010A
:102580000000048130014004000000000000000051
:102590000000000000000000300020010000048264
:1025A00030014004000000000000000000000000B6
:1025B00000000000300020010000048330014004CE
:1025C000000000000000000000000000000000000B
:1025D00030002001000004843001400400000000AD
:1025E000000000000000000000000000300020019A
:1025F00000000485300140040000000000000000DD
:1026000000000000000000003000200100000486EF
:102610003001400400000000000000000000000045
:102620000000000030002001000004873001400459
:10263000000000000000000000000000000000009A
:102640003000200100000488300140040000000038
:102650000000000000000000000000003000200129
:102660000000048930014004000000000000000068
:102670000000000000000000300020010000048A7B
:1026800030014004000000000000000000000000D5
:1026900000000000300020010000048B30014004E5
:1026A000000000000000000000000000000000002A
:1026B000300020010000048C3001400400000000C4
:1026C00000000000000000000000000030002001B9
:1026D0000000048D300140040000000000000000F4
:1026E0000000000000000000300020010000048E07
:1026F0003001400400000000000000000000000065
:1027000000000000300020010000048F3001400470
:1027100000000000000000000000000000000000B9
:10272000300020010000049030014004000000004F
:102730000000000000000000000000003000200148
:10274000000004913001400400000000000000007F
:102750000000000000000000300020010000049292
:1027600030014004000000000000000000000000F4
:1027700000000000300020010000049330014004FC
:102780000000000000000000000000000000000049
:1027900030002001000004943001400400000000DB
:1027A00000000000000000000000000030002001D8
:1027B000000004953001400400000000000000000B
:1027C000000000000000000030002001000004961E
:1027D0003001400400000000000000000000000084
:1027E0000000000030002001000004973001400488
:1027F00000000000000000000000000000000000D9
:102800003000200100000498300140040000000066
:102810000000000000000000000000003000200167
:102820000000049930014004000000000000000096
:102830000000000000000000300020010000049AA9
:102840003001400400000000000000000000000013
:1028500000000000300020010000049B3001400413
:102860000000000000000000000000000000000068
:10287000300020010000050030014004000000008D
:1028800000000000000000000000000030002001F7
:1028900000000501300140040000000000000000BD
:1028A00000000000000000003000200100000502D0
:1028B00030014004000000000000000000000000A3
:1028C000000000003000200100000503300140043A
:1028D00000000000000000000000000000000000F8
:1028E0003000200100000504300140040000000019
:1028F0000000000000000000000000003000200187
:102900000000050530014004000000000000000048
:10291000000000000000000030002001000005065B
:102920003001400400000000000000000000000032
:1029300000000000300020010000050730014004C5
:102940000000000000000000000000000000000087
:1029500030002001000005083001400400000000A4
:102960000000000000000000000000003000200116
:1029700000000509300140040000000000000000D4
:102980000000000000000000300020010000050AE7
:1029900030014004000000000000000000000000C2
:1029A00000000000300020010000050B3001400451
:1029B0000000000000000000000000000000000017
:1029C000300020010000050C300140040000000030
:1029D00000000000000000000000000030002001A6
:1029E0000000050D30014004000000000000000060
:1029F0000000000000000000300020010000050E73
:102A00003001400400000000000000000000000051
:102A100000000000300020010000050F30014004DC
:102A200000000000000000000000000000000000A6
:102A300030002001000005103001400400000000BB
:102A40000000000000000000000000003000200135
:102A500000000511300140040000000000000000EB
:102A600000000000000000003000200100000512FE
:102A700030014004000000000000000000000000E1
:102A80000000000030002001000005133001400468
:102A90000000000000000000000000000000000036
:102AA0003000200100000514300140040000000047
:102AB00000000000000000000000000030002001C5
:102AC0000000051530014004000000000000000077
:102AD000000000000000000030002001000005168A
:102AE0003001400400000000000000000000000071
:102AF00000000000300020010000051730014004F4
:102B000000000000000000000000000000000000C5
:102B100030002001000005183001400400000000D2
:102B20000000000000000000000000003000200154
:102B30000000051930014004000000000000000002
:102B40000000000000000000300020010000051A15
:102B50003001400400000000000000000000000000
:102B600000000000300020010000051B300140047F
:102B70000000000000000000000000000000000055
:102B8000300020010000051C30014004000000005E
:102B900000000000000000000000000030002001E4
:102BA0000000051D3001400400000000000000008E
:102BB0000000000000000000300020010000051EA1
:102BC0003001400400000000000000000000000090
:102BD00000000000300020010000051F300140040B
:102BE00000000000000000000000000000000000E5
:102BF00030002001000005203001400400000000EA
:102C00000000000000000000000000003000200173
:102C10000000052130014004000000000000000019
:102C2000000000000000000030002001000005222C
:102C3000300140040000000000000000000000001F
:102C40000000000030002001000005233001400496
:102C50000000000000000000000000000000000074
:102C60003000200100000580300140040000000019
:102C70000000000000000000000000003000200103
:102C80000000058130014004000000000000000049
:102C9000000000000000000030002001000005825C
:102CA00030014004000000000000000000000000AF
:102CB00000000000300020010000058330014004C6
:102CC0000000000000000000000000000000000004
:102CD00030002001000005843001400400000000A5
:102CE0000000000000000000000000003000200193
:102CF00000000585300140040000000000000000D5
:102D000000000000000000003000200100000586E7
:102D1000300140040000000000000000000000003E
:102D20000000000030002001000005873001400451
:102D30000000000000000000000000000000000093
:102D40003000200100000588300140040000000030
:102D50000000000000000000000000003000200122
:102D60000000058930014004000000000000000060
:102D70000000000000000000300020010000058A73
:102D800030014004000000000000000000000000CE
:102D900000000000300020010000058B30014004DD
:102DA0000000000000000000000000000000000023
:102DB000300020010000058C3001400400000000BC
:102DC00000000000000000000000000030002001B2
:102DD0000000058D300140040000000000000000EC
:102DE0000000000000000000300020010000058EFF
:102DF000300140040000000000000000000000005E
:102E000000000000300020010000058F3001400468
:102E100000000000000000000000000000000000B2
:102E20003000200100000590300140040000000047
:102E30000000000000000000000000003000200141
:102E40000000059130014004000000000000000077
:102E5000000000000000000030002001000005928A
:102E600030014004000000000000000000000000ED
:102E700000000000300020010000059330014004F4
:102E80000000000000000000000000000000000042
:102E900030002001000005943001400400000000D3
:102EA00000000000000000000000000030002001D1
:102EB0000000059530014004000000000000000003
:102EC0000000000000000000300020010000059616
:102ED000300140040000000000000000000000007D
:102EE0000000000030002001000005973001400480
:102EF00000000000000000000000000000000000D2
:102F0000300020010000059830014004000000005E
:102F10000000000000000000000000003000200160
:102F2000000005993001400400000000000000008E
:102F30000000000000000000300020010000059AA1
:102F4000300140040000000000000000000000000C
:102F500000000000300020010000059B300140040B
:102F60000000000000000000000000000000000061
:102F7000300020010000059C3001400400000000EA
:102F800000000000000000000000000030002001F0
:102F90000000059D3001400400000000000000001A
:102FA0000000000000000000300020010000059E2D
:102FB000300140040000000000000000000000009C
:102FC00000000000300020010000059F3001400497
:102FD00000000000000000000000000000000000F1
:102FE00030002001000005A0300140040000000076
:102FF0000000000000000000000000003000200180
:10300000000005A1300140040000000000000000A5
:10301000000000000000000030002001000005A2B8
:10302000300140040000000000000000000000002B
:103030000000000030002001000005A33001400422
:103040000000000000000000000000000000000080
:1030500030002001000006003001400400000000A4
:10306000000000000000000000000000300020010F
:1030700000000601300140040000000000000000D4
:1030800000000000000000003000200100000602E7
:1030900030014004000000000000000000000000BB
:1030A0000000000030002001000006033001400451
:1030B0000000000000000000000000000000000010
:1030C0003000200100000604300140040000000030
:1030D000000000000000000000000000300020019F
:1030E0000000060530014004000000000000000060
:1030F0000000000000000000300020010000060673
:10310000300140040000000000000000000000004A
:1031100000000000300020010000060730014004DC
:10312000000000000000000000000000000000009F
:1031300030002001000006083001400400000000BB
:10314000000000000000000000000000300020012E
:1031500000000609300140040000000000000000EB
:103160000000000000000000300020010000060AFE
:1031700030014004000000000000000000000000DA
:1031800000000000300020010000060B3001400468
:10319000000000000000000000000000000000002F
:1031A000300020010000060C300140040000000047
:1031B00000000000000000000000000030002001BE
:1031C0000000060D30014004000000000000000077
:1031D0000000000000000000300020010000060E8A
:1031E000300140040000000000000000000000006A
:1031F00000000000300020010000060F30014004F4
:1032000000000000000000000000000000000000BE
:1032100030002001000006103001400400000000D2
:10322000000000000000000000000000300020014D
:103230000000061130014004000000000000000002
:103240000000000000000000300020010000061215
:1032500030014004000000000000000000000000F9
:10326000000000003000200100000613300140047F
:10327000000000000000000000000000000000004E
:10328000300020010000061430014004000000005E
:1032900000000000000000000000000030002001DD
:1032A000000006153001400400000000000000008E
:1032B00000000000000000003000200100000616A1
:1032C0003001400400000000000000000000000089
:1032D000000000003000200100000617300140040B
:1032E00000000000000000000000000000000000DE
:1032F00030002001000006183001400400000000EA
:10330000000000000000000000000000300020016C
:103310000000061930014004000000000000000019
:103320000000000000000000300020010000061A2C
:103330003001400400000000000000000000000018
:1033400000000000300020010000061B3001400496
:10335000000000000000000000000000000000006D
:10336000300020010000061C300140040000000075
:1033700000000000000000000000000030002001FC
:103380000000061D300140040000000000000000A5
:103390000000000000000000300020010000061EB8
:1033A00030014004000000000000000000000000A8
:1033B00000000000300020010000061F3001400422
:1033C00000000000000000000000000000000000FD
:1033D0003000200100000620300140040000000001
:1033E000000000000000000000000000300020018C
:1033F0000000062130014004000000000000000031
:103400000000000000000000300020010000062243
:103410003001400400000000000000000000000037
:1034200000000000300020010000062330014004AD
:10343000000000000000000000000000000000008C
:103440003000200100000680300140040000000030
:10345000000000000000000000000000300020011B
:103460000000068130014004000000000000000060
:103470000000000000000000300020010000068273
:1034800030014004000000000000000000000000C7
:1034900000000000300020010000068330014004DD
:1034A000000000000000000000000000000000001C
:1034B00030002001000006843001400400000000BC
:1034C00000000000000000000000000030002001AB
:1034D00000000685300140040000000000000000EC
:1034E00000000000000000003000200100000686FF
:1034F0003001400400000000000000000000000057
:103500000000000030002001000006873001400468
:1035100000000000000000000000000000000000AB
:103520003000200100000688300140040000000047
:10353000000000000000000000000000300020013A
:103540000000068930014004000000000000000077
:103550000000000000000000300020010000068A8A
:1035600030014004000000000000000000000000E6
:1035700000000000300020010000068B30014004F4
:10358000000000000000000000000000000000003B
:10359000300020010000068C3001400400000000D3
:1035A00000000000000000000000000030002001CA
:1035B0000000068D30014004000000000000000003
:1035C0000000000000000000300020010000068E16
:1035D0003001400400000000000000000000000076
:1035E00000000000300020010000068F3001400480
:1035F00000000000000000000000000000000000CB
:10360000300020010000069030014004000000005E
:103610000000000000000000000000003000200159
:10362000000006913001400400000000000000008E
:1036300000000000000000003000200100000692A1
:103640003001400400000000000000000000000005
:10365000000000003000200100000693300140040B
:10366000000000000000000000000000000000005A
:1036700030002001000006943001400400000000EA
:1036800000000000000000000000000030002001E9
:10369000000006953001400400000000000000001A
:1036A000000000000000000030002001000006962D
:1036B0003001400400000000000000000000000095
:1036C0000000000030002001000006973001400497
:1036D00000000000000000000000000000000000EA
:1036E0003000200100000698300140040000000076
:1036F0000000000000000000000000003000200179
:1037000000000699300140040000000000000000A5
:103710000000000000000000300020010000069AB8
:103720003001400400000000000000000000000024
:1037300000000000300020010000069B3001400422
:103740000000000000000000000000000000000079
:10375000300020010000069C300140040000000001
:103760000000000000000000000000003000200108
:103770000000069D30014004000000000000000031
:103780000000000000000000300020010000069E44
:1037900030014004000000000000000000000000B4
:1037A00000000000300020010000069F30014004AE
:1037B0000000000000000000000000000000000009
:1037C00030002001000006A030014004000000008D
:1037D0000000000000000000000000003000200198
:1037E000000006A1300140040000000000000000BD
:1037F000000000000000000030002001000006A2D0
:103800003001400400000000000000000000000043
:103810000000000030002001000006A33001400439
:103820000000000000000000000000000000000098
:1038300030002001000007003001400400000000BB
:103840000000000000000000000000003000200127
:1038500000000701300140040000000000000000EB
:1038600000000000000000003000200100000702FE
:1038700030014004000000000000000000000000D3
:103880000000000030002001000007033001400468
:103890000000000000000000000000000000000028
:1038A0003000200100000704300140040000000047
:1038B00000000000000000000000000030002001B7
:1038C0000000070530014004000000000000000077
:1038D000000000000000000030002001000007068A
:1038E0003001400400000000000000000000000063
:1038F00000000000300020010000070730014004F4
:1039000000000000000000000000000000000000B7
:1039100030002001000007083001400400000000D2
:103920000000000000000000000000003000200146
:103930000000070930014004000000000000000002
:103940000000000000000000300020010000070A15
:1039500030014004000000000000000000000000F2
:1039600000000000300020010000070B300140047F
:103970000000000000000000000000000000000047
:10398000300020010000070C30014004000000005E
:1039900000000000000000000000000030002001D6
:1039A0000000070D3001400400000000000000008E
:1039B0000000000000000000300020010000070EA1
:1039C0003001400400000000000000000000000082
:1039D00000000000300020010000070F300140040B
:1039E00000000000000000000000000000000000D7
:1039F00030002001000007103001400400000000EA
:103A00000000000000000000000000003000200165
:103A10000000071130014004000000000000000019
:103A2000000000000000000030002001000007122C
:103A30003001400400000000000000000000000011
:103A40000000000030002001000007133001400496
:103A50000000000000000000000000000000000066
:103A60003000200100000714300140040000000075
:103A700000000000000000000000000030002001F5
:103A800000000715300140040000000000000000A5
:103A900000000000000000003000200100000716B8
:103AA00030014004000000000000000000000000A1
:103AB0000000000030002001000007173001400422
:103AC00000000000000000000000000000000000F6
:103AD0003000200100000718300140040000000001
:103AE0000000000000000000000000003000200185
:103AF0000000071930014004000000000000000031
:103B00000000000000000000300020010000071A43
:103B10003001400400000000000000000000000030
:103B200000000000300020010000071B30014004AD
:103B30000000000000000000000000000000000085
:103B4000300020010000071C30014004000000008C
:103B50000000000000000000000000003000200114
:103B60000000071D300140040000000000000000BC
:103B70000000000000000000300020010000071ECF
:103B800030014004000000000000000000000000C0
:103B900000000000300020010000071F3001400439
:103BA0000000000000000000000000000000000015
:103BB0003000200100000720300140040000000018
:103BC00000000000000000000000000030002001A4
:103BD0000000072130014004000000000000000048
:103BE000000000000000000030002001000007225B
:103BF0003001400400000000000000000000000050
:103C000000000000300020010000072330014004C4
:103C100000000000000000000000000000000000A4
:103C20003000200100000780300140040000000047
:103C30000000000000000000000000003000200133
:103C40000000078130014004000000000000000077
:103C5000000000000000000030002001000007828A
:103C600030014004000000000000000000000000DF
:103C700000000000300020010000078330014004F4
:103C80000000000000000000000000000000000034
:103C900030002001000007843001400400000000D3
:103CA00000000000000000000000000030002001C3
:103CB0000000078530014004000000000000000003
:103CC0000000000000000000300020010000078616
:103CD000300140040000000000000000000000006F
:103CE0000000000030002001000007873001400480
:103CF00000000000000000000000000000000000C4
:103D0000300020010000078830014004000000005E
:103D10000000000000000000000000003000200152
:103D2000000007893001400400000000000000008E
:103D30000000000000000000300020010000078AA1
:103D400030014004000000000000000000000000FE
:103D500000000000300020010000078B300140040B
:103D60000000000000000000000000000000000053
:103D7000300020010000078C3001400400000000EA
:103D800000000000000000000000000030002001E2
:103D90000000078D3001400400000000000000001A
:103DA0000000000000000000300020010000078E2D
:103DB000300140040000000000000000000000008E
:103DC00000000000300020010000078F3001400497
:103DD00000000000000000000000000000000000E3
:103DE0003000200100000790300140040000000076
:103DF0000000000000000000000000003000200172
:103E000000000791300140040000000000000000A5
:103E100000000000000000003000200100000792B8
:103E2000300140040000000000000000000000001D
:103E30000000000030002001000007933001400422
:103E40000000000000000000000000000000000072
:103E50003000200100000794300140040000000001
:103E60000000000000000000000000003000200101
:103E70000000079530014004000000000000000031
:103E80000000000000000000300020010000079644
:103E900030014004000000000000000000000000AD
:103EA00000000000300020010000079730014004AE
:103EB0000000000000000000000000000000000002
:103EC000300020010000079830014004000000008D
:103ED0000000000000000000000000003000200191
:103EE00000000799300140040000000000000000BD
:103EF0000000000000000000300020010000079AD0
:103F0000300140040000000000000000000000003C
:103F100000000000300020010000079B3001400439
:103F20000000000000000000000000000000000091
:103F3000300020010000079C300140040000000018
:103F40000000000000000000000000003000200120
:103F50000000079D30014004000000000000000048
:103F60000000000000000000300020010000079E5B
:103F700030014004000000000000000000000000CC
:103F800000000000300020010000079F30014004C5
:103F90000000000000000000000000000000000021
:103FA00030002001000007A03001400400000000A4
:103FB00000000000000000000000000030002001B0
:103FC000000007A1300140040000000000000000D4
:103FD000000000000000000030002001000007A2E7
:103FE000300140040000000000000000000000005C
:103FF0000000000030002001000007A33001400451
:1040000000000000000000000000000000000000B0
:1040100030002001000008003001400400000000D2
:10402000000000000000000000000000300020013F
:104030000000080130014004000000000000000002
:104040000000000000000000300020010000080215
:1040500030014004000000000000000000000000EB
:10406000000000003000200100000803300140047F
:104070000000000000000000000000000000000040
:10408000300020010000080430014004000000005E
:1040900000000000000000000000000030002001CF
:1040A000000008053001400400000000000000008E
:1040B00000000000000000003000200100000806A1
:1040C000300140040000000000000000000000007B
:1040D000000000003000200100000807300140040B
:1040E00000000000000000000000000000000000D0
:1040F00030002001000008083001400400000000EA
:10410000000000000000000000000000300020015E
:104110000000080930014004000000000000000019
:104120000000000000000000300020010000080A2C
:10413000300140040000000000000000000000000A
:1041400000000000300020010000080B3001400496
:10415000000000000000000000000000000000005F
:10416000300020010000080C300140040000000075
:1041700000000000000000000000000030002001EE
:104180000000080D300140040000000000000000A5
:104190000000000000000000300020010000080EB8
:1041A000300140040000000000000000000000009A
:1041B00000000000300020010000080F3001400422
:1041C00000000000000000000000000000000000EF
:1041D0003000200100000810300140040000000001
:1041E000000000000000000000000000300020017E
:1041F0000000081130014004000000000000000031
:104200000000000000000000300020010000081243
:104210003001400400000000000000000000000029
:1042200000000000300020010000081330014004AD
:10423000000000000000000000000000000000007E
:10424000300020010000081430014004000000008C
:10425000000000000000000000000000300020010D
:1042600000000815300140040000000000000000BC
:1042700000000000000000003000200100000816CF
:1042800030014004000000000000000000000000B9
:104290000000000030002001000008173001400439
:1042A000000000000000000000000000000000000E
:1042B0003000200100000818300140040000000018
:1042C000000000000000000000000000300020019D
:1042D0000000081930014004000000000000000048
:1042E0000000000000000000300020010000081A5B
:1042F0003001400400000000000000000000000049
:1043000000000000300020010000081B30014004C4
:10431000000000000000000000000000000000009D
:10432000300020010000081C3001400400000000A3
:10433000000000000000000000000000300020012C
:104340000000081D300140040000000000000000D3
:104350000000000000000000300020010000081EE6
:1043600030014004000000000000000000000000D8
:1043700000000000300020010000081F3001400450
:10438000000000000000000000000000000000002D
:10439000300020010000082030014004000000002F
:1043A00000000000000000000000000030002001BC
:1043B000000008213001400400000000000000005F
:1043C0000000000000000000300020010000082272
:1043D0003001400400000000000000000000000068
:1043E00000000000300020010000082330014004DC
:1043F00000000000000000000000000000000000BD
:10440000300020010000088030014004000000005E
:10441000000000000000000000000000300020014B
:10442000000008813001400400000000000000008E
:1044300000000000000000003000200100000882A1
:1044400030014004000000000000000000000000F7
:10445000000000003000200100000883300140040B
:10446000000000000000000000000000000000004C
:1044700030002001000008843001400400000000EA
:1044800000000000000000000000000030002001DB
:10449000000008853001400400000000000000001A
:1044A000000000000000000030002001000008862D
:1044B0003001400400000000000000000000000087
:1044C0000000000030002001000008873001400497
:1044D00000000000000000000000000000000000DC
:1044E0003000200100000888300140040000000076
:1044F000000000000000000000000000300020016B
:1045000000000889300140040000000000000000A5
:104510000000000000000000300020010000088AB8
:104520003001400400000000000000000000000016
:1045300000000000300020010000088B3001400422
:10454000000000000000000000000000000000006B
:10455000300020010000088C300140040000000001
:1045600000000000000000000000000030002001FA
:104570000000088D30014004000000000000000031
:104580000000000000000000300020010000088E44
:1045900030014004000000000000000000000000A6
:1045A00000000000300020010000088F30014004AE
:1045B00000000000000000000000000000000000FB
:1045C000300020010000089030014004000000008D
:1045D000000000000000000000000000300020018A
:1045E00000000891300140040000000000000000BD
:1045F00000000000000000003000200100000892D0
:104600003001400400000000000000000000000035
:104610000000000030002001000008933001400439
:10462000000000000000000000000000000000008A
:104630003000200100000894300140040000000018
:104640000000000000000000000000003000200119
:104650000000089530014004000000000000000048
:10466000000000000000000030002001000008965B
:1046700030014004000000000000000000000000C5
:1046800000000000300020010000089730014004C5
:10469000000000000000000000000000000000001A
:1046A00030002001000008983001400400000000A4
:1046B00000000000000000000000000030002001A9
:1046C00000000899300140040000000000000000D4
:1046D0000000000000000000300020010000089AE7
:1046E0003001400400000000000000000000000055
:1046F00000000000300020010000089B3001400451
:1047000000000000000000000000000000000000A9
:10471000300020010000089C30014004000000002F
:104720000000000000000000000000003000200138
:104730000000089D3001400400000000000000005F
:104740000000000000000000300020010000089E72
:1047500030014004000000000000000000000000E4
:1047600000000000300020010000089F30014004DC
:104770000000000000000000000000000000000039
:1047800030002001000008A03001400400000000BB
:1047900000000000000000000000000030002001C8
:1047A000000008A1300140040000000000000000EB
:1047B000000000000000000030002001000008A2FE
:1047C0003001400400000000000000000000000074
:1047D0000000000030002001000008A33001400468
:1047E00000000000000000000000000000000000C9
:1047F00030002001000009003001400400000000EA
:104800000000000000000000000000003000200157
:104810000000090130014004000000000000000019
:10482000000000000000000030002001000009022C
:104830003001400400000000000000000000000003
:104840000000000030002001000009033001400496
:104850000000000000000000000000000000000058
:104860003000200100000904300140040000000075
:1048700000000000000000000000000030002001E7
:1048800000000905300140040000000000000000A5
:1048900000000000000000003000200100000906B8
:1048A0003001400400000000000000000000000093
:1048B0000000000030002001000009073001400422
:1048C00000000000000000000000000000000000E8
:1048D0003000200100000908300140040000000001
:1048E0000000000000000000000000003000200177
:1048F0000000090930014004000000000000000031
:104900000000000000000000300020010000090A43
:104910003001400400000000000000000000000022
:1049200000000000300020010000090B30014004AD
:104930000000000000000000000000000000000077
:10494000300020010000090C30014004000000008C
:104950000000000000000000000000003000200106
:104960000000090D300140040000000000000000BC
:104970000000000000000000300020010000090ECF
:1049800030014004000000000000000000000000B2
:1049900000000000300020010000090F3001400439
:1049A0000000000000000000000000000000000007
:1049B0003000200100000910300140040000000018
:1049C0000000000000000000000000003000200196
:1049D0000000091130014004000000000000000048
:1049E000000000000000000030002001000009125B
:1049F0003001400400000000000000000000000042
:104A000000000000300020010000091330014004C4
:104A10000000000000000000000000000000000096
:104A200030002001000009143001400400000000A3
:104A30000000000000000000000000003000200125
:104A400000000915300140040000000000000000D3
:104A500000000000000000003000200100000916E6
:104A600030014004000000000000000000000000D1
:104A70000000000030002001000009173001400450
:104A80000000000000000000000000000000000026
:104A9000300020010000091830014004000000002F
:104AA00000000000000000000000000030002001B5
:104AB000000009193001400400000000000000005F
:104AC0000000000000000000300020010000091A72
:104AD0003001400400000000000000000000000061
:104AE00000000000300020010000091B30014004DC
:104AF00000000000000000000000000000000000B6
:104B0000300020010000091C3001400400000000BA
:104B10000000000000000000000000003000200144
:104B20000000091D300140040000000000000000EA
:104B3000000000000000000030002001000009809B
:104B400030014004000000000000000000000000F0
:104B50000000000030002001000009813001400405
:104B60000000000000000000000000000000000045
:104B700030002001000009823001400400000000E4
:104B800000000000000000000000000030002001D4
:104B90000000098330014004000000000000000014
:104BA0000000000000000000300020010000098427
:104BB0003001400400000000000000000000000080
:104BC0000000000030002001000009853001400491
:104BD00000000000000000000000000000000000D5
:104BE0003000200100000986300140040000000070
:104BF0000000000000000000000000003000200164
:104C0000000009873001400400000000000000009F
:104C100000000000000000003000200100000988B2
:104C2000300140040000000000000000000000000F
:104C3000000000003000200100000989300140041C
:104C40000000000000000000000000000000000064
:104C5000300020010000098A3001400400000000FB
:104C600000000000000000000000000030002001F3
:104C70000000098B3001400400000000000000002B
:104C80000000000000000000300020010000098C3E
:104C9000300140040000000000000000000000009F
:104CA00000000000300020010000098D30014004A8
:104CB00000000000000000000000000000000000F4
:104CC000300020010000098E300140040000000087
:104CD0000000000000000000000000003000200183
:104CE0000000098F300140040000000000000000B7
:104CF00000000000000000003000200100000990CA
:104D0000300140040000000000000000000000002E
:104D10000000000030002001000009913001400433
:104D20000000000000000000000000000000000083
:104D30003000200100000992300140040000000012
:104D40000000000000000000000000003000200112
:104D50000000099330014004000000000000000042
:104D60000000000000000000300020010000099455
:104D700030014004000000000000000000000000BE
:104D800000000000300020010000099530014004BF
:104D90000000000000000000000000000000000013
:104DA000300020010000099630014004000000009E
:104DB00000000000000000000000000030002001A2
:104DC00000000997300140040000000000000000CE
:104DD00000000000000000003000200100000998E1
:104DE000300140040000000000000000000000004E
:104DF000000000003000200100000999300140044B
:104E000000000000000000000000000000000000A2
:104E1000300020010000099A300140040000000029
:104E20000000000000000000000000003000200131
:104E30000000099C30014004000000000000000058
:104E40000000000000000000300020010000099D6B
:104E500030014004000000000000000000000000DD
:104E6000000000003000200100000A003001400472
:104E70000000000000000000000000000000000032
:104E80003000200100000A01300140040000000051
:104E900000000000000000000000000030002001C1
:104EA00000000A0230014004000000000000000081
:104EB00000000000000000003000200100000A0394
:104EC000300140040000000000000000000000006D
:104ED000000000003000200100000A0430014004FE
:104EE00000000000000000000000000000000000C2
:104EF0003000200100000A053001400400000000DD
:104F00000000000000000000000000003000200150
:104F100000000A063001400400000000000000000C
:104F200000000000000000003000200100000A071F
:104F300030014004000000000000000000000000FC
:104F4000000000003000200100000A083001400489
:104F50000000000000000000000000000000000051
:104F60003000200100000A09300140040000000068
:104F700000000000000000000000000030002001E0
:104F800000000A0A30014004000000000000000098
:104F900000000000000000003000200100000A0BAB
:104FA000300140040000000000000000000000008C
:104FB000000000003000200100000A0C3001400415
:104FC00000000000000000000000000000000000E1
:104FD0003000200100000A0D3001400400000000F4
:104FE0000000000000000000000000003000200170
:104FF00000000A0E30014004000000000000000024
:1050000000000000000000003000200100000A0F36
:10501000300140040000000000000000000000001B
:10502000000000003000200100000A1030014004A0
:105030000000000000000000000000000000000070
:105040003000200100000A1130014004000000007F
:1050500000000000000000000000000030002001FF
:1050600000000A12300140040000000000000000AF
:1050700000000000000000003000200100000A13C2
:1050800030014004000000000000000000000000AB
:10509000000000003000200100000A14300140042C
:1050A0000000000000000000000000000000000000
:1050B0003000200100000A1530014004000000000B
:1050C000000000000000000000000000300020018F
:1050D00000000A163001400400000000000000003B
:1050E00000000000000000003000200100000A174E
:1050F000300140040000000000000000000000003B
:10510000000000003000200100000A1830014004B7
:10511000000000000000000000000000000000008F
:105120003000200100000A19300140040000000096
:10513000000000000000000000000000300020011E
:1051400000000A1A300140040000000000000000C6
:1051500000000000000000003000200100000A1BD9
:1051600030014004000000000000000000000000CA
:10517000000000003000200100000A1C3001400443
:10518000000000000000000000000000000000001F
:105190003000200100000A1D300140040000000022
:1051A00000000000000000000000000030002001AE
:1051B00000000A1E30014004000000000000000052
:1051C00000000000000000003000200100000A1F65
:1051D000300140040000000000000000000000005A
:1051E000000000003000200100000A2030014004CF
:1051F00000000000000000000000000000000000AF
:105200003000200100000A213001400400000000AD
:10521000000000000000000000000000300020013D
:1052200000000A22300140040000000000000000DD
:1052300000000000000000003000200100000A23F0
:1052400030014004000000000000000000000000E9
:10525000000000003000200100000A8030014004FE
:10526000000000000000000000000000000000003E
:105270003000200100000A813001400400000000DD
:1052800000000000000000000000000030002001CD
:1052900000000A823001400400000000000000000D
:1052A00000000000000000003000200100000A8320
:1052B0003001400400000000000000000000000079
:1052C000000000003000200100000A84300140048A
:1052D00000000000000000000000000000000000CE
:1052E0003000200100000A85300140040000000069
:1052F000000000000000000000000000300020015D
:1053000000000A8630014004000000000000000098
:1053100000000000000000003000200100000A87AB
:105320003001400400000000000000000000000008
:10533000000000003000200100000A883001400415
:10534000000000000000000000000000000000005D
:105350003000200100000A893001400400000000F4
:1053600000000000000000000000000030002001EC
:1053700000000A8A30014004000000000000000024
:1053800000000000000000003000200100000A8B37
:105390003001400400000000000000000000000098
:1053A000000000003000200100000A8C30014004A1
:1053B00000000000000000000000000000000000ED
:1053C0003000200100000A8D300140040000000080
:1053D000000000000000000000000000300020017C
:1053E00000000A8E300140040000000000000000B0
:1053F00000000000000000003000200100000A8FC3
:105400003001400400000000000000000000000027
:10541000000000003000200100000A90300140042C
:10542000000000000000000000000000000000007C
:105430003000200100000A9130014004000000000B
:10544000000000000000000000000000300020010B
:1054500000000A923001400400000000000000003B
:1054600000000000000000003000200100000A934E
:1054700030014004000000000000000000000000B7
:10548000000000003000200100000A9430014004B8
:10549000000000000000000000000000000000000C
:1054A0003000200100000A95300140040000000097
:1054B000000000000000000000000000300020019B
:1054C00000000A96300140040000000000000000C7
:1054D00000000000000000003000200100000A97DA
:1054E0003001400400000000000000000000000047
:1054F000000000003000200100000A983001400444
:10550000000000000000000000000000000000009B
:105510003000200100000A99300140040000000022
:10552000000000000000000000000000300020012A
:1055300000000A9A30014004000000000000000052
:1055400000000000000000003000200100000A9B65
:1055500030014004000000000000000000000000D6
:10556000000000003000200100000A9C30014004CF
:10557000000000000000000000000000000000002B
:105580003000200100000A9D3001400400000000AE
:1055900000000000000000000000000030002001BA
:1055A00000000A9E300140040000000000000000DE
:1055B00000000000000000003000200100000A9FF1
:1055C0003001400400000000000000000000000066
:1055D000000000003000200100000AA0300140045B
:1055E00000000000000000000000000000000000BB
:1055F0003000200100000AA130014004000000003A
:105600000000000000000000000000003000200149
:1056100000000AA230014004000000000000000069
:1056200000000000000000003000200100000AA37C
:1056300030014004000000000000000000000000F5
:10564000000000003000200100000B003001400489
:10565000000000000000000000000000000000004A
:105660003000200100000B01300140040000000068
:1056700000000000000000000000000030002001D9
:1056800000000B0230014004000000000000000098
:1056900000000000000000003000200100000B03AB
:1056A0003001400400000000000000000000000085
:1056B000000000003000200100000B043001400415
:1056C00000000000000000000000000000000000DA
:1056D0003000200100000B053001400400000000F4
:1056E0000000000000000000000000003000200169
:1056F00000000B0630014004000000000000000024
:1057000000000000000000003000200100000B0736
:105710003001400400000000000000000000000014
:10572000000000003000200100000B0830014004A0
:105730000000000000000000000000000000000069
:105740003000200100000B0930014004000000007F
:1057500000000000000000000000000030002001F8
:1057600000000B0A300140040000000000000000AF
:1057700000000000000000003000200100000B0BC2
:1057800030014004000000000000000000000000A4
:10579000000000003000200100000B0C300140042C
:1057A00000000000000000000000000000000000F9
:1057B0003000200100000B0D30014004000000000B
:1057C0000000000000000000000000003000200188
:1057D00000000B0E3001400400000000000000003B
:1057E00000000000000000003000200100000B0F4E
:1057F0003001400400000000000000000000000034
:10580000000000003000200100000B1030014004B7
:105810000000000000000000000000000000000088
:105820003000200100000B11300140040000000096
:105830000000000000000000000000003000200117
:1058400000000B12300140040000000000000000C6
:1058500000000000000000003000200100000B13D9
:1058600030014004000000000000000000000000C3
:10587000000000003000200100000B143001400443
:105880000000000000000000000000000000000018
:105890003000200100000B15300140040000000022
:1058A00000000000000000000000000030002001A7
:1058B00000000B1630014004000000000000000052
:1058C00000000000000000003000200100000B1765
:1058D0003001400400000000000000000000000053
:1058E000000000003000200100000B1830014004CF
:1058F00000000000000000000000000000000000A8
:105900003000200100000B193001400400000000AD
:105910000000000000000000000000003000200136
:1059200000000B1A300140040000000000000000DD
:1059300000000000000000003000200100000B1BF0
:1059400030014004000000000000000000000000E2
:10595000000000003000200100000B1C300140045A
:105960000000000000000000000000000000000037
:105970003000200100000B1D300140040000000039
:1059800000000000000000000000000030002001C6
:1059900000000B1E30014004000000000000000069
:1059A00000000000000000003000200100000B1F7C
:1059B0003001400400000000000000000000000072
:1059C000000000003000200100000B2030014004E6
:1059D00000000000000000000000000000000000C7
:1059E0003000200100000B213001400400000000C5
:1059F0000000000000000000000000003000200156
:105A000000000B22300140040000000000000000F4
:105A100000000000000000003000200100000B2307
:105A20003001400400000000000000000000000001
:105A3000000000003000200100000B803001400415
:105A40000000000000000000000000000000000056
:105A50003000200100000B813001400400000000F4
:105A600000000000000000000000000030002001E5
:105A700000000B8230014004000000000000000024
:105A800000000000000000003000200100000B8337
:105A90003001400400000000000000000000000091
:105AA000000000003000200100000B8430014004A1
:105AB00000000000000000000000000000000000E6
:105AC0003000200100000B85300140040000000080
:105AD0000000000000000000000000003000200175
