:020000040800F2
:1020000000C0002055260008A5260008A5260008C7
:10201000A5260008A5260008A52600080000000047
:10202000000000000000000000000000A5260008DD
:10203000A526000800000000A5260008A526000827
:10204000A5260008A5260008A5260008A526000844
:10205000A5260008A5260008A5260008A526000834
:10206000A5260008A5260008A5260008A526000824
:10207000A5260008A5260008A5260008A526000814
:10208000A5260008A5260008A5260008A526000804
:102090005D240008A5260008A5260008A52600083E
:1020A000A5260008A5260008A5260008A5260008E4
:1020B000712800080000000000000000A5260008AC
:1020C000A52600080000000000000000A52600086A
:1020D00000000000A5260008A5260008000000005A
:1020E000A5260008A526000800000000000000004A
:1020F00000000000000000000000000000000000E0
:10210000000000000000000000000000A5260008FC
:102110000000000000000000A5260008A526000819
:10212000A5260008A5260008A5260008A526000863
:10213000A5260008000000000000000000000000CC
:10214000A5260008A5260008A5260008A526000843
:10215000A5260008A5260008A5260008A526000833
:10216000A5260008A5260008A526000800000000F6
:10217000A5260008A52600080000000000000000B9
:10218000A5260008A5260008A526000800000000D6
:1021900010B5054C237833B9044B13B10448AFF3A1
:1021A00000800123237010BDD80000200000000033
:1021B0001833000808B5034B1BB103490348AFF3BC
:1021C000008008BD00000000DC000020183300087B
:1021D0000023034A1370034A1380034A13607047B5
:1021E000190100201A010020F4000020154B1B7873
:1021F000012B00D07047144A1388013B9BB2138017
:10220000002BF7D100B589B013800E4A13700193EB
:1022100002930393049305930693079341F60913DE
:1022200003930123049305939DF8183043F00203B0
:102230008DF8183001A9054800F04CFB09B05DF895
:1022400004FB00BF190100201A0100203405002002
:1022500008B5104B1B78012B00D008BD0E4B1B7826
:10226000102BFAD10C4B00221A700C4B1A680C4B35
:102270009A420AD0094B0A4A1A601023074A126888
:102280000021084600F0CAFDE7E7044B054A1A6042
:10229000F3E700BF1901002018010020F40000201E
:1022A000F80000200801002000B589B0054A136835
:1022B0000133136001A9044B186800F033FB09B027
:1022C0005DF804FB1C010020200100201F4A136858
:1022D00043F00103136000201C4B5B6813F0010FF7
:1022E00003D10130B0F57A7FF6D3B0F57A7F2AD0EA
:1022F000164BD3F8002242F00102C3F80022D3F8B3
:10230000042262F07842C3F80422D3F80C2262F06F
:102310007842C3F80C22D3F8002222F00102C3F85D
:1023200000221A6822F001021A60084B5B6813F061
:10233000010F03D00130B0F57A7FF6D3B0F57A7093
:1023400018BF012070470020704700BF00640040A4
:1023500008B5024B1860FFF7B9FF08BD2001002047
:1023600000BF704700B589B001A9064800F0DAFA4D
:10237000012802D009B05DF804FB01A800F076FB4B
:10238000F8E700BF3405002008B500BE00F08AF968
:1023900008BD000008B51C21244800F081FA1C216A
:1023A000234800F07DFA234800F042FF90BB0F2144
:1023B000214800F0C5FB80B30021204800F0DAFA84
:1023C00070B300F015FD70B31D4B4FF480121A600E
:1023D000FFF7FEFE1B4B1868400000F0F3F91448AD
:1023E000FFF7B6FF184B186800F0ECF90F211748FB
:1023F00000F0DAF90521164800F0D6F964211548F5
:1024000000F0D2F90A21144800F0CEF900F002FAE7
:10241000002008BDFFF7B8FFC9E7FFF7B5FFCBE71E
:10242000FFF7B2FFCDE7FFF7AFFFCDE734050020A0
:1024300024010020000000201C0000200064004057
:1024400000E100E0000A0020D0000020A9220008DE
:1024500065230008ED21000851220008344BDB6899
:1024600013F0100F03D0324BDA680022DA60304BE1
:10247000DB6813F0080F03D02D4BDA680022DA6016
:102480002B4BDB6813F0030F50D010B588B0284BEE
:10249000D3F8B03113F0040F41D0254BD3F8B0314D
:1024A000DB080393224CD4F8B43103F00F030593F7
:1024B000D4F8B8318DF81830D4F8B831C3F3072305
:1024C0008DF81930D4F8B831C3F307438DF81A30BA
:1024D000D4F8B8311B0E8DF81B30D4F8BC318DF810
:1024E0001C30D4F8BC31C3F307238DF81D30D4F869
:1024F000BC31C3F307438DF81E30D4F8BC311B0E3A
:102500008DF81F3001A8FFF72BFFE36843F020038D
:10251000E36001A9074800F0DDF908B010BD044BE5
:10252000D3F8B0315B0DADF80830BBE7704700BFA2
:1025300000640040240100200E4AD2F8883043F4A1
:102540007003C2F888300C4B1A6842F001021A601E
:10255000002199601A6822F0A85222F410221A6011
:102560004FF48052DA601A6822F480221A6099616E
:10257000704700BF00ED00E0001002402F4B1B68C9
:1025800013F0080F16D12D4BD3F89430C3F3032367
:102590002B4A52F82320294B9B6803F00C030C2B89
:1025A00048D8DFE803F00C4747470F474747134732
:1025B00047471700214B1B68C3F30313E8E7214B80
:1025C0001A6028E01F4B204A1A6024E01D4B1F4A66
:1025D0001A6020E0194BD96801F00301DB68C3F3EE
:1025E00002130133022904D003291FD0B2FBF3F2F6
:1025F00002E0154AB2FBF3F21049CB68C3F306239D
:1026000002FB03F3CA68C2F3416201325200B3FB1A
:10261000F2F30C4A1360094B9B68C3F303130C4A93
:10262000D15C084A1368CB4013607047074AB2FB7D
:10263000F3F2E1E7034B1A60EDE700BF0010024040
:102640004C330008D00000200024F40000127A006F
:102650003C330008DFF834D0FFF76EFF002103E0C1
:102660000B4B5B58435004310A480B4B42189A42BB
:10267000F6D30A4A02E0002342F8043B084B9A4290
:10268000F9D300F017FEFFF785FEFEE700C000203B
:102690009033000800000020D8000020D80000205F
:1026A0000C0A0020FEE700000D4B5B78012B15D0D3
:1026B00010B510E004F11A02094B03EB82035B68CA
:1026C00098470134E4B2064BDB78A342F2D8044BBE
:1026D0005B78012B01D00024F5E710BD704700BFE7
:1026E000440900202A4B1B79012B50D110B539E049
:1026F0000134E4B2264B9B78A34212D9244A936852
:1027000004F1080132F81120B3FBF2F102FB11339E
:10271000002BEDD104F10C031D4A52F823309847E9
:10272000E6E71B4B5B78012B2BD0FFF7BDFF184969
:102730008B68D1F8B0209B1A9AB2A1F8AA20B1F800
:10274000A83007EE903AF8EE676A134407EE903A25
:10275000F8EEE77A86EEA77A81ED2D7A0C4B1B799D
:10276000012B13D10A4B9A68C3F8AC2000245C708B
:1027700008494AF6AA200860A3F8A840C3F8B02088
:10278000B8E7034A137801331370CEE710BD7047E2
:102790004409002000300040002302E0C15401330E
:1027A000DBB29342FAD37047054A937803F1080CE1
:1027B00022F81C10591C91700C3342F8230070470A
:1027C0004409002038B504460F4A936D43F00103D5
:1027D00093650E4BA3FB00239B0C013B4FF0804203
:1027E00093624FF47A73D362136823F0100313607B
:1027F000D36843F00103D360054DB8220021284679
:10280000FFF7CAFFEC6038BD0010024083DE1B43B7
:102810004409002008B54FF08042136843F00103DB
:102820001360104A136843F0805313600E4B4CF64C
:10283000CC421A6045F255521A605A6842F00202C0
:102840005A6014229A60094B01221A71064BDB6808
:1028500013F0070FFAD1044B4AF6AA221A60FFF7C9
:1028600041FF08BD00E100E00030004044090020C5
:102870004FF08042136923F001031361074A936804
:102880000133936047F23052934203D0034B01224D
:102890005A707047014B00229A60F7E74409002004
:1028A000002380F80034A0F80C14C0F80404C0F829
:1028B000080407EE901AF8EE677ADFED056A86EEF7
:1028C000A77AFCEEC77A17EE903A80F80134704789
:1028D0000000804490F8002490F801349A421FD000
:1028E00010B50446D0F80824101AB4F80C2402FBE2
:1028F00003F3984211D0D4F8080400F0FFFCD4F898
:102900000834B4F80C241344C4F8083494F80034A0
:10291000013384F80034012010BDC4F80844EAE70C
:102920000020704710B5044690F80004E8B10B464B
:10293000D4F80424101BB4F80C2494F8011402FBFE
:1029400001F1884212D0D4F80414184600F0D6FCE5
:10295000D4F80434B4F80C241344C4F8043494F8C0
:102960000034013B84F80034012010BDC4F8044455
:10297000E9E700003A4B984201D000207047394AFD
:10298000936D43F000739365036823F002030360C3
:102990000023426812F0020F03D00133B3F57A7FAF
:1029A000F7D3B3F57A7F56D0036843F00103036091
:1029B0000023426812F0010F03D10133B3F57A7F8F
:1029C000F7D3B3F57A7F48D0274BC361036843F050
:1029D0004003036019B1C36943F08043C361D0F879
:1029E000003243F00103C0F80032D0F8043223F083
:1029F0000103C0F80432D0F80C3223F00103C0F810
:102A00000C32D0F81C3243F00103C0F81C32002312
:102A1000C0F84032C0F84432D0F8002222F001025F
:102A2000C0F80022426942F002024261426942F06B
:102A300010024261026822F001020260426812F054
:102A4000010F03D00133B3F57A7FF7D3B3F57A7072
:102A500018BF01207047002070470020704700BF5A
:102A6000006400400010024001001C0003689A68E6
:102A700012F0806F0BD19A6812F0006F4FD19A68F4
:102A800012F0805F5AD04FF40031022201E002219F
:102A9000002230B5C468002C45D185886D0502F14F
:102AA000180424011D510368046902F1180E4FEA4D
:102AB0000E1C03EB0E135C60C47D837D1B0443EA94
:102AC0000463447D43EA0423047D2343046804EB48
:102AD000021ECEF88831C47E837E1B0443EA046361
:102AE000447E43EA0423047E2343046804EB021279
:102AF000C2F88C31026852F80C3043F0010342F8FE
:102B00000C300023026892680A4203D10133B3F506
:102B10007A7FF7D3B3F57A7018BF012030BD4FF438
:102B200000710122B5E78468E40044F0040402F176
:102B3000180C4FEA0C1C43F80C40B4E70020704717
:102B4000F0B54FF0000E5CE0794CA24240F0ED8011
:102B5000784CE26C42F08002E26404E0754CE26C76
:102B600042F00102E26450F80C6032681C796500A2
:102B70000324AC4022EA0402326050F80C6034684E
:102B80005A7902F003021D796D00AA402243326097
:102B90005A79032A00F2C980DFE802F04F08663153
:102BA000644CE26C42F00202E264DCE750F80C6034
:102BB000B2681C7965000324AC4022EA0402B260CA
:102BC00050F80C60B468DA7902F003021D796D00E8
:102BD000AA402243B26050F80C506A681E79012462
:102BE000B44022EA04026A6050F80C506C681A7A09
:102BF00002F001021B7902FA03F323436B600EF12A
:102C0000010E714540F392800EEB4E034FEA830CA8
:102C100000EB830350F80C20474CA242C0D093D85D
:102C2000B2F1904F9AD0A4F58064A2427DD1414C7C
:102C3000E26C42F00202E26495E750F80C60F26840
:102C40001C7965000324AC4022EA0402F26050F8CB
:102C50000C50EC689A7902F003021B795B0002FACF
:102C600003F32343EB60CAE71C79072C94BF0022CF
:102C7000012250F80C70083257F8225004F0070473
:102C8000A4000F2606FA04F425EA040447F82240BB
:102C900050F80C6056F822705C7A04F00F041D792D
:102CA00005F00705AD00AC403C4346F8224050F823
:102CB0000C60B5681A795200032404FA02F225EA7E
:102CC0000202B26050F80C70BD68DA7922401E79B9
:102CD0007600B2402A43BA6050F80C6072681F79DF
:102CE0000125BD4022EA0502726050F80C6075684B
:102CF0001A7A02F001021F79BA402A43726050F832
:102D00000C60F2681D796D00AC4022EA0404F460A6
:102D100050F80C50EC689A7902F003021B795B00C2
:102D200002FA03F32343EB6069E70020F0BD00BF24
:102D3000001C004800100240000800482B4B9B6814
:102D4000437A03B901234372284B1A6822F4706254
:102D50001A601968427A013A120202F470620A4358
:102D60001A605A6922F040625A61596902789206E3
:102D700002F040620A435A615A6922F040725A6175
:102D80005969C279120602F040720A435A615A69BF
:102D900022F440625A615969C278920202F4406298
:102DA0000A435A615A6922F440525A6159690279B8
:102DB000120302F440520A435A615A6922F4F8029B
:102DC0005A615969027A920402F4F8020A435A617C
:102DD0005A6922F080525A6159698278120702F0CA
:102DE00080520A435A610120704700BF001000A0C2
:102DF00000B585B0074A136D43F480731365064A26
:102E000001AB07CA03C31A8001A8FFF797FF05B0FB
:102E10005DF804FB001002403033000870B4174C1A
:102E2000A568266826F005062660666926F0FF0676
:102E30006661656905436561A161C3B11C460F4BBD
:102E40009B6813F4F85F04D00C490B6843F002034D
:102E50000B60102C28BF1024084B1C61002304E0D9
:102E6000D05C064908620133DBB2A342F8D3034ABF
:102E7000136843F00103136070BC7047001000A09A
:102E800070B5DFF804C18C4528BF8C4639498C45A4
:102E900038BF8C46384A136823F080731360364B72
:102EA0001C6814F00074FAD11A46DB6823F4FE4360
:102EB00023F07303D360012806D0022858D098B1BC
:102EC00000250823012119E02B4BDA6842F00202A9
:102ED000DA601A6842F480721A60274B1B6813F498
:102EE000806FFAD0254CEBE7234AD36843F0010307
:102EF000D360E5E70125ADB90131C9B2082911D880
:102F0000B4FBF1F0A0F57412A2F510621C4EB242AF
:102F1000F2D8562BEFD800FB03F26245EAD001331A
:102F2000DBB2F6E715B3144AD668481E000100F07C
:102F300070003043D060D0681E0206F4FE46304375
:102F4000D060B4FBF1F101FB03F30E490B60D368D1
:102F500043F48033D360136843F080731360064BEF
:102F60001B6813F0007FFAD0FFF708FB284670BDFE
:102F70000025FBE70090D003001002400024F4007D
:102F8000001BB700080A00200006811408B52F4B6B
:102F9000984200D918462E4B1B68B3FBF0F313F090
:102FA000FF034CD013F0010F4BD1082B4BD8294A0B
:102FB000D16841F08071D160D16821F0C061D160E9
:102FC000D1685B08013B5B0603F0C0630B43D36031
:102FD000BFF34F8F204B1A681A601F4B5B6913F4C5
:102FE000806FFAD1BFF34F8F1C4B1B6823F0070390
:102FF0001B4A904211D943F00403184A1360BFF3EF
:103000004F8F144B9A6842F003029A609B68BFF39B
:103010004F8FFFF7B3FA012012E0124A904202D319
:1030200043F00303E9E7104A904202D343F002035E
:10303000E3E70E4A9042E0D343F00103DDE70020CE
:1030400008BD0020FCE70020FAE700BF00B4C4047C
:10305000080A0020001002400070004000200240DA
:10306000FFB3C4040090D003006CDC020048E80108
:1030700008B5174A136843F480731360144B1B6838
:1030800013F4806FFAD0BFF34F8F124B1A681A6097
:10309000104B5B6913F4806FFAD1BFF34F8F0E4A68
:1030A000136823F007031360BFF34F8FA2F580521C
:1030B000936843F001039360054B9B6813F0040F82
:1030C000FAD0BFF34F8FFFF759FA012008BD00BFB8
:1030D000001002400070004000200240214B1B689D
:1030E000B3FBF0F3102B10D8002B36D0013B0F2B85
:1030F00035D8DFE803F0082C34263434342834344F
:1031000034343434342A00230DE0B3F5807F20D0EA
:1031100004D9B3F5007F12D1F02304E0402B1AD07C
:10312000802B0AD1D02310498A6822F0F002134381
:103130008B600E4B18600120704700207047002004
:1031400070479023EFE7A023EDE7B023EBE7802360
:10315000E9E7E023E7E7C023E5E700207047002028
:10316000704700BFD000002000100240FC09002082
:10317000144B1B68B3FBF0F3013B0F2B20D8DFE8A7
:1031800003F0081C1F0A1F1F1F161F1F1F1F1F1FD2
:103190001F19002201E04FF4A0620B498B6823F451
:1031A000E06313438B60094B1860012070474FF4B4
:1031B000C062F2E74FF4E062EFE74FF48062ECE7C1
:1031C00000207047FC09002000100240000A002087
:1031D000144B1B68B3FBF0F3013B0F2B20D8DFE847
:1031E00003F0081C1F0A1F1F1F161F1F1F1F1F1F72
:1031F0001F19002201E04FF420520B498B6823F481
:10320000605313438B60094B1860012070474FF4E3
:103210004052F2E74FF46052EFE74FF40052ECE710
:1032200000207047FC09002000100240040A002022
:1032300070B5054603781BB1012B2ED0FF202BE083
:103240008169007DFFF71CFE80F00104E4B2E40117
:1032500064B26868FFF79AFE80F00106F6B244EAAD
:103260008614E6B2A868FFF739FF80F00104E4B2E3
:10327000344364B2E868FFF77BFF80F00100C0B21E
:1032800044EA400464B22869FFF7A2FF80F001001D
:10329000C0B244EA8000C0B270BDFFF7E9FE80F022
:1032A0000104E4B22401E6B2014B6B60DAE700BF2F
:1032B0000024F40070B50D4D0D4C641BA4100026C5
:1032C000A64209D10B4D0C4C00F026F8641BA4104B
:1032D0000026A64205D170BD55F8043B984701363B
:1032E000EEE755F8043B98470136F2E780330008D3
:1032F0008033000880330008843300080A44914278
:1033000000F1FF3300D1704710B511F8014B03F8FD
:10331000014F9142F9D110BDF8B500BFF8BC08BC0F
:103320009E467047F8B500BFF8BC08BC9E46704783
:103330000011011110000011020100000000000046
:10334000000000000102030406070809A08601002E
:10335000400D0300801A060000350C0040420F00AB
:1033600080841E0000093D0000127A000024F40051
:1033700000366E010048E801006CDC02000000002D
:08338000B52100080000000067
:08338800912100080000000083
:103390000000000000B4C40400B4C404404B4C005E
:1033A000404B4C0001000000006889090000004803
:1033B0000B02000302090000000000480C02000399
:1033C00002090000000000480201000000000000A7
:1033D000000000480101000000000000000000485B
:1033E00003020000010A000000040048020200007D
:1033F000010A00000004004801020000010A000068
:103400000000004807020000010A00000000004818
:1034100006020000010A0000000400480602000045
:10342000010400000004004807020000010400003D
:1034300000000048060100000000000000000048F5
:103440000F0100000000000000040048040100001B
:10345000000000000004004805010000000000001A
:0834600000093D00000000001E
:040000050800265574
:00000001FF
