:020000040800F2
:1020000000C000203926000889260008892600081B
:10201000892600088926000889260008000000009B
:1020200000000000000000000000000089260008F9
:10203000892600080000000089260008892600087B
:1020400089260008892600088926000889260008B4
:1020500089260008892600088926000889260008A4
:102060008926000889260008892600088926000894
:102070008926000889260008892600088926000884
:102080008926000889260008892600088926000874
:1020900041240008892600088926000889260008AE
:1020A0008926000889260008892600088926000854
:1020B00075290008000000000000000089260008C3
:1020C00089260008000000000000000089260008A2
:1020D0000000000089260008892600080000000092
:1020E0008926000889260008000000000000000082
:1020F00000000000000000000000000000000000E0
:102100000000000000000000000000008926000818
:102110000000000000000000892600088926000851
:1021200089260008892600088926000889260008D3
:1021300089260008000000000000000000000000E8
:1021400089260008892600088926000889260008B3
:1021500089260008892600088926000889260008A3
:10216000892600088926000889260008000000004A
:1021700089260008892600080000000000000000F1
:10218000892600088926000889260008000000002A
:1021900010B5054C237833B9044B13B10448AFF3A1
:1021A00000800123237010BDD80000200000000033
:1021B0004434000808B5034B1BB103490348AFF38F
:1021C000008008BD00000000DC000020443400084E
:1021D0000023034A1370034A1380034A13607047B5
:1021E00014010020160100201C010020124B1B7856
:1021F000012B00D07047114A1388013B9BB213801A
:10220000002BF7D100B589B013800B4A13700193EE
:1022100002930693079341F6091303930123049352
:10222000059302238DF8183001A9054800F0D4FB6E
:1022300009B05DF804FB00BF140100201601002066
:102240004805002008B5104B1B78012B00D008BDB5
:102250000E4B1B78102BFAD10C4B00221A700C4B32
:102260001A680C4B9A420AD0094B0A4A1A6010238A
:10227000074A12680021084600F066FEE7E7044BB3
:10228000054A1A60F3E700BF140100202001002076
:102290001C010020F40000200401002000B589B0DA
:1022A00001A9034B186800F0BFFB09B05DF804FBFF
:1022B000240100201F4A136843F00103136000202B
:1022C0001C4B5B6813F0010F03D10130B0F57A7F2E
:1022D000F6D3B0F57A7F2AD0164BD3F8002242F01D
:1022E0000102C3F80022D3F8042262F07842C3F856
:1022F0000422D3F80C2262F07842C3F80C22D3F8FF
:10230000002222F00102C3F800221A6822F0010222
:102310001A60084B5B6813F0010F03D00130B0F571
:102320007A7FF6D3B0F57A7018BF0120704700208D
:10233000704700BF0064004008B5024B1860FFF70B
:10234000B9FF08BD2401002000BF704700B589B067
:1023500001A9064800F068FB012802D009B05DF829
:1023600004FB01A800F004FCF8E700BF48050020CA
:1023700008B500BE00F088F908BD000008B51C21B2
:10238000234800F00FFB1C21224800F00BFB2248E1
:1023900000F0E4FF80BB0F21204800F04FFC70B339
:1023A00000211F4800F068FB60B300F0B7FD60B388
:1023B0001C4B4FF480121A60FFF70AFF1A4B186883
:1023C000400000F07FFA1348FFF7B6FF174B18687C
:1023D00000F078FA6421164800F056FA0A211548F0
:1023E00000F052FA144800F061FA144800F05EFA66
:1023F00000F092FA002008BDFFF7BAFFCBE7FFF725
:10240000B7FFCDE7FFF7B4FFCFE7FFF7B1FFCFE7A7
:102410004805002038010020000000201C0000209A
:102420000064004000E100E0140B0020D000002018
:10243000ED210008452200084D2300089D220008D8
:10244000344BDB6813F0100F03D0324BDA680022F4
:10245000DA60304BDB6813F0080F03D02D4BDA68DD
:102460000022DA602B4BDB6813F0030F50D010B55D
:1024700088B0284BD3F8B03113F0040F41D0254B6E
:10248000D3F8B031DB080393224CD4F8B43103F015
:102490000F030593D4F8B8318DF81830D4F8B8315B
:1024A000C3F307238DF81930D4F8B831C3F30743C9
:1024B0008DF81A30D4F8B8311B0E8DF81B30D4F8D3
:1024C000BC318DF81C30D4F8BC31C3F307238DF830
:1024D0001D30D4F8BC31C3F307438DF81E30D4F857
:1024E000BC311B0E8DF81F3001A8FFF72DFFE368EC
:1024F00043F02003E36001A9074800F06DFA08B03B
:1025000010BD044BD3F8B0315B0DADF80830BBE71C
:10251000704700BF00640040380100200E4AD2F826
:10252000883043F47003C2F888300C4B1A6842F0CC
:1025300001021A60002199601A6822F0A85222F460
:1025400010221A604FF48052DA601A6822F4802256
:102550001A609961704700BF00ED00E00010024072
:102560002F4B1B6813F0080F16D12D4BD3F8943066
:10257000C3F303232B4A52F82310294A936803F02C
:102580000C030C2B48D8DFE803F00C4747471947EA
:1025900047471D4747472100214B1B68C3F30313DF
:1025A000E8E7214B19601E4B9B68C3F303131F4AD6
:1025B000D15C1D4A1368CB40136070471A4B1C4A0C
:1025C0001A60F0E7184B1B4A1A60ECE7144BDA6804
:1025D00002F00302DB68C3F302130133022A04D0C2
:1025E000032A15D0B1FBF3F302E0114AB2FBF3F377
:1025F0000B49CA68C2F3062203FB02F3CA68C2F39E
:10260000416201325200B3FBF2F3074A1360CAE79A
:10261000084AB2FBF3F3EBE7034B1960C3E700BFD3
:10262000001002407C340008D00000206C34000808
:102630000024F40000127A00DFF834D0FFF76EFFB8
:10264000002103E00B4B5B58435004310A480B4B0D
:1026500042189A42F6D30A4A02E0002342F8043BA9
:10266000084B9A42F9D300F0BBFEFFF787FEFEE766
:1026700000C00020C034000800000020D800002066
:10268000D8000020240B0020FEE700000D4BDB7873
:10269000012B15D010B510E004F11A02094B03EB21
:1026A00082035B6898470134E4B2064B5B79A3422E
:1026B000F2D8044BDB78012B01D00024F5E710BDE4
:1026C000704700BF580900200023934202D2C15432
:1026D0000133FAE77047000008B5026843689A4280
:1026E00015D01E4BC3601E4B5B787BB1D0ED037AD7
:1026F0009FED1C7AF4EEC77AF1EE10FA1DDD184B4F
:102700001B78D3B1164BD3F8A830984708BD43893E
:1027100002899B1A9AB21BB2002B0ADB07EE903A91
:10272000F8EEE77AF2EE046A87EEA67A80ED037A95
:10273000D9E702F57A731BB2F0E79FED0B7AF4EE5E
:10274000C77AF1EE10FAE1DD054B1B78022BDDD1E3
:10275000034BD3F8A8309847D8E700BF0000C84221
:10276000580900200000B4420000964210B50B4CFE
:102770002046FFF7B1FF04F11000FFF7ADFF002482
:1027800008E02001A830064B18440430FFF7A4FFEE
:102790000134E4B20E2CF4D910BD00BFF40A0020BD
:1027A00058090020364B9B79012B67D12DE9F04168
:1027B0004DE00134E4B2324B1B79A34225D9304BB2
:1027C0009A6804F1080133F81110B2FBF1F301FB30
:1027D0001323002BEDD14FF08048D8F82430284D3A
:1027E00004F10B0605EB0616B38005EB0417C7F8DA
:1027F000AC2004F10C0355F823309847D8F8243066
:10280000F380AB68C7F8B030D3E74FF080435A6A23
:102810001B4BA3F8A6219A68C3F8A021DB78012BF3
:1028200025D04FF080456B6A154CA4F8B431C4F83C
:10283000AC21FFF72BFF6B6AA4F8B431A368C4F88E
:10284000AC31FFF793FF0E4B9B79012B14D10C4B4E
:102850000024DC700B4A4AF6AA2111604FF0804236
:10286000526AA3F8A4219A68C3F89C21A3E70449FB
:102870008B7801338B70D4E7BDE8F081704700BFDF
:10288000580900200030004010B4074A137903F1C2
:10289000080422F81410591C11710C3342F823005B
:1028A0005DF8044B704700BF58090020044B5A796B
:1028B000511C59711A3203EB82035860704700BFF4
:1028C0005809002038B50446104A936D43F00103BF
:1028D00093650F4BA3FB00239B0C013B4FF0804201
:1028E00093624FF47A73D362136823F0100313607A
:1028F000D36843F00103D360064D4FF4DE7200212C
:102900002846FFF7E1FEEC6038BD00BF0010024032
:1029100083DE1B435809002008B54FF0804213683E
:1029200043F001031360104A136843F080531360AF
:102930000E4B4CF6CC421A6045F255521A605A685A
:1029400042F002025A6014229A60094B01229A71E5
:10295000064BDB6813F0070FFAD1044B4AF6AA22A4
:102960001A60FFF71FFF08BD00E100E000300040E3
:10297000580900204FF08042136923F001031361CE
:10298000074A93680133936047F23052934203D071
:10299000034B0122DA707047014B00229A60F7E77F
:1029A00058090020002380F80034A0F80C14C0F867
:1029B0000404C0F8080407EE901AF8EE677ADFED19
:1029C000056A86EEA77AFCEEC77A17EE903A80F891
:1029D000013470470000804490F8002490F80134DE
:1029E0009A421FD010B50446D0F80824101AB4F843
:1029F0000C2403FB02F3984211D0D4F8080400F031
:102A000013FDD4F80834B4F80C241344C4F8083483
:102A100094F80034013384F80034012010BDC4F868
:102A20000844EAE70020704710B5044690F8000417
:102A3000E8B10B46D4F80424101BB4F80C2494F825
:102A4000011401FB02F1884212D0D4F80414184694
:102A500000F0EAFCD4F80434B4F80C241344C4F8AD
:102A6000043494F80034013B84F80034012010BD94
:102A7000C4F80444E9E700003A4B984201D0002032
:102A80007047394A936D43F000739365036823F0F0
:102A9000020303600023426812F0020F03D00133E7
:102AA000B3F57A7FF7D3B3F57A7F56D0036843F056
:102AB000010303600023426812F0010F03D10133C8
:102AC000B3F57A7FF7D3B3F57A7F48D0274BC3614C
:102AD000036843F04003036019B1C36943F08043C6
:102AE000C361D0F8003243F00103C0F80032D0F8DF
:102AF000043223F00103C0F80432D0F80C3223F082
:102B00000103C0F80C32D0F81C3243F00103C0F8C6
:102B10001C320023C0F84032C0F84432D0F8002202
:102B200022F00102C0F80022426942F00202426132
:102B3000426942F010024261026822F00102026022
:102B4000426812F0010F03D00133B3F57A7FF7D357
:102B5000B3F57A7018BF012070470020704700203D
:102B6000704700BF006400400010024001001C00DC
:102B700003689A6812F0806F0BD19A6812F0006FA8
:102B80004DD19A6812F0805F56D04FF40031022286
:102B900001E00221002270B4C468002C43D1858872
:102BA0006D0502F1180424011D510368066902F144
:102BB00018052C0103EB05135E60C57D837D1B04A6
:102BC00043EA0563457D43EA0523067D05683343F3
:102BD00005EB0215C5F88831C57E837E1B0443EAE8
:102BE0000563457E43EA0523067E0568334305EB0E
:102BF0000212C2F88C310268135943F001031351D9
:102C00000023026892680A4203D10133B3F57A7F48
:102C1000F7D3B3F57A7018BF012070BC70474FF43A
:102C200000710122B7E78468E40044F0040402F173
:102C300018052D015C51B8E700207047F0B500255C
:102C400063E0864EB24240F00681854EF26C42F05F
:102C50008002F26404E0824EF26C42F00102F264FF
:102C600050F804C0DCF800201E7977000326BE402F
:102C700022EA0602CCF8002050F804C0DCF800601C
:102C80005A7902F003021F797F00BA403243CCF830
:102C900000205A79032A00F2DE80DFE802F05108B2
:102CA00069356F4EF26C42F00202F264D8E750F8D8
:102CB00004C0DCF808201E7977000326BE4022EA13
:102CC0000602CCF8082050F804C0DCF80860DA7975
:102CD00002F003021F797F00BA403243CCF808208B
:102CE00007597A6893F804C0012606FA0CF622EA1E
:102CF00006027A60065974681A7A02F001021B799A
:102D000002FA03F3234373600135A94240F3A48020
:102D100005EB45039C0000EB83030259514EB24280
:102D2000BFD08ED8B2F1904F95D0A6F58066B24252
:102D300040F091804A4EF26C42F00202F2648FE75A
:102D400050F804C0DCF80C201E7977000326BE4042
:102D500022EA0602CCF80C200659F4689A7902F0AF
:102D600003021B795B0002FA03F32343F360CBE712
:102D70001E79072E94BF0022012250F804E0083289
:102D80005EF8227006F00706B6004FF00F0C0CFA42
:102D900006F627EA06064EF8226050F804C05CF8F2
:102DA00022E05E7A06F00F061F7907F00707BF00E2
:102DB000BE404EEA06064CF8226050F804C0DCF82B
:102DC00008701A795200032606FA02F227EA020274
:102DD000CCF8082050F804E0DEF80870DA793240C8
:102DE00093F804C04FEA4C0C02FA0CF23A43CEF8C6
:102DF000082050F804C0DCF8042093F804E0012710
:102E000007FA0EF722EA0702CCF8042050F804C0B3
:102E1000DCF804701A7A02F0010293F804E002FA76
:102E20000EF23A43CCF8042050F804C0DCF80C2031
:102E30001F797F00BE4022EA0606CCF80C600659D6
:102E4000F4689A7902F003021B795B0002FA03F33B
:102E50002343F36058E70020F0BD00BF001C00488A
:102E600000100240000800482B4B9B68437A03B9CE
:102E700001234372284B1A6822F470621A601968A1
:102E8000427A013A120202F470620A431A605A69E5
:102E900022F040625A6159690278920602F040625B
:102EA0000A435A615A6922F040725A615969C279DB
:102EB000120602F040720A435A615A6922F44062D3
:102EC0005A615969C278920202F440620A435A6117
:102ED0005A6922F440525A6159690279120302F484
:102EE00040520A435A615A6922F4F8025A615969F8
:102EF000027A920402F4F8020A435A615A6922F0F3
:102F000080525A6159698278120702F080520A434E
:102F10005A610120704700BF001000A000B585B0C5
:102F2000074A136D43F480731365064A01AB07CA61
:102F300003C31A8001A8FFF797FF05B05DF804FBF3
:102F4000001002406034000870B4174CA568266871
:102F500026F005062660666926F0FF06666165694B
:102F600005436561A161C3B11C460F4B9B6813F417
:102F7000F85F04D00C490B6843F002030B60102C7F
:102F800028BF1024084B1C610023A34205D2D05C4B
:102F9000054908620133DBB2F7E7034A136843F0DF
:102FA0000103136070BC7047001000A0F8B53C4BE3
:102FB000994228BF19463B4B994238BF19463A4AB5
:102FC000136823F080731360374B1D6815F000758C
:102FD000FAD11A46DB6823F4FE4323F07303D3606F
:102FE000012806D0022858D098B1002608230120D5
:102FF00019E02D4BDA6842F00202DA601A6842F4F6
:1030000080721A60284B1B6813F4806FFAD0274D2A
:10301000EBE7254AD36843F00103D360E5E70126D7
:10302000AEB90130C0B2082811D8B5FBF0F4A4F550
:103030007412A2F510621E4FBA42F2D8562BEFD886
:1030400004FB03F28A42EAD00133DBB2F6E716B39F
:10305000154AD468411E090101F070012143D16075
:10306000D1681C0204F4FE442143D160B5FBF0F0AA
:1030700000FB03F30F490B60D36843F48033D36044
:10308000136843F080731360074B1B6813F0007FD5
:10309000FAD0FFF765FA3046F8BD0026FBE700BF1F
:1030A000000681140090D003001002400024F400B8
:1030B000001BB7001C0B002008B52F4B984200D90D
:1030C00018462E4B1B68B3FBF0F313F0FF034CD0F4
:1030D00013F0010F4BD1082B4BD8294AD16841F08E
:1030E0008071D160D16821F0C061D160D1685B0886
:1030F000013B5B0603F0C0630B43D360BFF34F8F0C
:10310000204B1A681A601F4B5B6913F4806FFAD169
:10311000BFF34F8F1C4B1B6823F007031B4A9042E1
:1031200011D943F00403184A1360BFF34F8F144BB7
:103130009A6842F003029A609B68BFF34F8FFFF7D3
:103140000FFA012012E0124A904202D343F0030327
:10315000E9E7104A904202D343F00203E3E70E4A44
:103160009042E0D343F00103DDE7002008BD0020DA
:10317000FCE70020FAE700BF00B4C4041C0B0020E9
:10318000001002400070004000200240FFB3C40461
:103190000090D003006CDC020048E80108B5174A33
:1031A000136843F480731360144B1B6813F4806F2F
:1031B000FAD0BFF34F8F124B1A681A60104B5B693D
:1031C00013F4806FFAD1BFF34F8F0E4A136823F0C8
:1031D00007031360BFF34F8FA2F58052936843F04B
:1031E00001039360054B9B6813F0040FFAD0BFF303
:1031F0004F8FFFF7B5F9012008BD00BF0010024056
:103200000070004000200240214B1B68B3FBF0F32C
:10321000102B10D8002B36D0013B0F2B35D8DFE810
:1032200003F0082C34263434342834343434343421
:10323000342A00230DE0B3F5807F20D004D9B3F504
:10324000007F12D1F02304E0402B1AD0802B0AD14A
:10325000D02310498A6822F0F00213438B600E4B92
:1032600018600120704700207047002070479023AD
:10327000EFE7A023EDE7B023EBE78023E9E7E023C6
:10328000E7E7C023E5E7002070470020704700BF54
:10329000D000002000100240200B0020144B1B68BF
:1032A000B3FBF0F3013B0F2B20D8DFE803F0081C41
:1032B0001F0A1F1F1F161F1F1F1F1F1F1F1900225E
:1032C00001E04FF4A0620B498B6823F4E0631343E1
:1032D0008B60094B1860012070474FF4C062F2E721
:1032E0004FF4E062EFE74FF48062ECE700207047B4
:1032F000200B002000100240140B0020144B1B6810
:10330000B3FBF0F3013B0F2B20D8DFE803F0081CE0
:103310001F0A1F1F1F161F1F1F1F1F1F1F190022FD
:1033200001E04FF420520B498B6823F460531343A0
:103330008B60094B1860012070474FF44052F2E750
:103340004FF46052EFE74FF40052ECE70020704773
:10335000200B002000100240180B002070B505461D
:1033600003781BB1012B2ED0FF202BE08169007D5B
:10337000FFF71CFE80F00104E4B2E40164B2686867
:10338000FFF79AFE80F00106F6B244EA8614E6B230
:10339000A868FFF739FF80F00104E4B2344364B257
:1033A000E868FFF77BFF80F00100C0B244EA400408
:1033B00064B22869FFF7A2FF80F00100C0B244EABE
:1033C0008000C0B270BDFFF7E9FE80F00104E4B2F6
:1033D0002401E6B2014B6B60DAE700BF0024F40081
:1033E00070B50D4D0D4C641BA4100026A64209D1EA
:1033F0000B4D0C4C00F026F8641BA4100026A642CE
:1034000005D170BD55F8043B98470136EEE755F8F5
:10341000043B98470136F2E7B0340008B0340008A6
:10342000B0340008B43400080A44914200F1FF337C
:1034300000D1704710B511F8014B03F8014F9142CC
:10344000F9D110BDF8B500BFF8BC08BC9E46704766
:10345000F8B500BFF8BC08BC9E46704700000000ED
:103460000011011110000011020100000000000015
:10347000000000000102030406070809A0860100FD
:10348000400D0300801A060000350C0040420F007A
:1034900080841E0000093D0000127A000024F40020
:1034A00000366E010048E801006CDC0200000000FC
:0834B000B52100080000000036
:0834B800912100080000000052
:1034C0000000000000B4C40400B4C404404B4C002D
:1034D000404B4C00010000000068890900000048D2
:1034E0000B02000302090000000000480C02000368
:1034F0000209000000000048020100000000000076
:103500000000004801010000000000000000004829
:1035100003020000010A000000040048020200004B
:10352000010A00000004004801020000010A000036
:103530000000004807020000010A000000000048E7
:1035400006020000010A0000000400480602000014
:10355000010400000004004807020000010400000C
:1035600000000048060100000000000000000048C4
:103570000F010000000000000004004804010000EA
:1035800000000000000400480501000000000000E9
:0835900000093D0000000000ED
:040000050800263990
:00000001FF
